{
  "_format": "hh-sol-artifact-1",
  "contractName": "GovernorBravoDelegate",
  "sourceName": "contracts/Governance/GovernorBravoDelegateG2.sol",
  "abi": [
    {
      "anonymous": false,
      "inputs": [
        {
          "indexed": false,
          "internalType": "address",
          "name": "oldAdmin",
          "type": "address"
        },
        {
          "indexed": false,
          "internalType": "address",
          "name": "newAdmin",
          "type": "address"
        }
      ],
      "name": "NewAdmin",
      "type": "event"
    },
    {
      "anonymous": false,
      "inputs": [
        {
          "indexed": false,
          "internalType": "address",
          "name": "oldImplementation",
          "type": "address"
        },
        {
          "indexed": false,
          "internalType": "address",
          "name": "newImplementation",
          "type": "address"
        }
      ],
      "name": "NewImplementation",
      "type": "event"
    },
    {
      "anonymous": false,
      "inputs": [
        {
          "indexed": false,
          "internalType": "address",
          "name": "oldPendingAdmin",
          "type": "address"
        },
        {
          "indexed": false,
          "internalType": "address",
          "name": "newPendingAdmin",
          "type": "address"
        }
      ],
      "name": "NewPendingAdmin",
      "type": "event"
    },
    {
      "anonymous": false,
      "inputs": [
        {
          "indexed": false,
          "internalType": "uint256",
          "name": "id",
          "type": "uint256"
        }
      ],
      "name": "ProposalCanceled",
      "type": "event"
    },
    {
      "anonymous": false,
      "inputs": [
        {
          "indexed": false,
          "internalType": "uint256",
          "name": "id",
          "type": "uint256"
        },
        {
          "indexed": false,
          "internalType": "address",
          "name": "proposer",
          "type": "address"
        },
        {
          "indexed": false,
          "internalType": "address[]",
          "name": "targets",
          "type": "address[]"
        },
        {
          "indexed": false,
          "internalType": "uint256[]",
          "name": "values",
          "type": "uint256[]"
        },
        {
          "indexed": false,
          "internalType": "string[]",
          "name": "signatures",
          "type": "string[]"
        },
        {
          "indexed": false,
          "internalType": "bytes[]",
          "name": "calldatas",
          "type": "bytes[]"
        },
        {
          "indexed": false,
          "internalType": "uint256",
          "name": "startBlock",
          "type": "uint256"
        },
        {
          "indexed": false,
          "internalType": "uint256",
          "name": "endBlock",
          "type": "uint256"
        },
        {
          "indexed": false,
          "internalType": "string",
          "name": "description",
          "type": "string"
        }
      ],
      "name": "ProposalCreated",
      "type": "event"
    },
    {
      "anonymous": false,
      "inputs": [
        {
          "indexed": false,
          "internalType": "uint256",
          "name": "id",
          "type": "uint256"
        }
      ],
      "name": "ProposalExecuted",
      "type": "event"
    },
    {
      "anonymous": false,
      "inputs": [
        {
          "indexed": false,
          "internalType": "uint256",
          "name": "id",
          "type": "uint256"
        },
        {
          "indexed": false,
          "internalType": "uint256",
          "name": "eta",
          "type": "uint256"
        }
      ],
      "name": "ProposalQueued",
      "type": "event"
    },
    {
      "anonymous": false,
      "inputs": [
        {
          "indexed": false,
          "internalType": "uint256",
          "name": "oldProposalThreshold",
          "type": "uint256"
        },
        {
          "indexed": false,
          "internalType": "uint256",
          "name": "newProposalThreshold",
          "type": "uint256"
        }
      ],
      "name": "ProposalThresholdSet",
      "type": "event"
    },
    {
      "anonymous": false,
      "inputs": [
        {
          "indexed": true,
          "internalType": "address",
          "name": "voter",
          "type": "address"
        },
        {
          "indexed": false,
          "internalType": "uint256",
          "name": "proposalId",
          "type": "uint256"
        },
        {
          "indexed": false,
          "internalType": "uint8",
          "name": "support",
          "type": "uint8"
        },
        {
          "indexed": false,
          "internalType": "uint256",
          "name": "votes",
          "type": "uint256"
        },
        {
          "indexed": false,
          "internalType": "string",
          "name": "reason",
          "type": "string"
        }
      ],
      "name": "VoteCast",
      "type": "event"
    },
    {
      "anonymous": false,
      "inputs": [
        {
          "indexed": false,
          "internalType": "uint256",
          "name": "oldVotingDelay",
          "type": "uint256"
        },
        {
          "indexed": false,
          "internalType": "uint256",
          "name": "newVotingDelay",
          "type": "uint256"
        }
      ],
      "name": "VotingDelaySet",
      "type": "event"
    },
    {
      "anonymous": false,
      "inputs": [
        {
          "indexed": false,
          "internalType": "uint256",
          "name": "oldVotingPeriod",
          "type": "uint256"
        },
        {
          "indexed": false,
          "internalType": "uint256",
          "name": "newVotingPeriod",
          "type": "uint256"
        }
      ],
      "name": "VotingPeriodSet",
      "type": "event"
    },
    {
      "anonymous": false,
      "inputs": [
        {
          "indexed": false,
          "internalType": "address",
          "name": "account",
          "type": "address"
        },
        {
          "indexed": false,
          "internalType": "uint256",
          "name": "expiration",
          "type": "uint256"
        }
      ],
      "name": "WhitelistAccountExpirationSet",
      "type": "event"
    },
    {
      "anonymous": false,
      "inputs": [
        {
          "indexed": false,
          "internalType": "address",
          "name": "oldGuardian",
          "type": "address"
        },
        {
          "indexed": false,
          "internalType": "address",
          "name": "newGuardian",
          "type": "address"
        }
      ],
      "name": "WhitelistGuardianSet",
      "type": "event"
    },
    {
      "inputs": [],
      "name": "BALLOT_TYPEHASH",
      "outputs": [
        {
          "internalType": "bytes32",
          "name": "",
          "type": "bytes32"
        }
      ],
      "stateMutability": "view",
      "type": "function"
    },
    {
      "inputs": [],
      "name": "DOMAIN_TYPEHASH",
      "outputs": [
        {
          "internalType": "bytes32",
          "name": "",
          "type": "bytes32"
        }
      ],
      "stateMutability": "view",
      "type": "function"
    },
    {
      "inputs": [],
      "name": "MAX_PROPOSAL_THRESHOLD",
      "outputs": [
        {
          "internalType": "uint256",
          "name": "",
          "type": "uint256"
        }
      ],
      "stateMutability": "view",
      "type": "function"
    },
    {
      "inputs": [],
      "name": "MAX_VOTING_DELAY",
      "outputs": [
        {
          "internalType": "uint256",
          "name": "",
          "type": "uint256"
        }
      ],
      "stateMutability": "view",
      "type": "function"
    },
    {
      "inputs": [],
      "name": "MAX_VOTING_PERIOD",
      "outputs": [
        {
          "internalType": "uint256",
          "name": "",
          "type": "uint256"
        }
      ],
      "stateMutability": "view",
      "type": "function"
    },
    {
      "inputs": [],
      "name": "MIN_PROPOSAL_THRESHOLD",
      "outputs": [
        {
          "internalType": "uint256",
          "name": "",
          "type": "uint256"
        }
      ],
      "stateMutability": "view",
      "type": "function"
    },
    {
      "inputs": [],
      "name": "MIN_VOTING_DELAY",
      "outputs": [
        {
          "internalType": "uint256",
          "name": "",
          "type": "uint256"
        }
      ],
      "stateMutability": "view",
      "type": "function"
    },
    {
      "inputs": [],
      "name": "MIN_VOTING_PERIOD",
      "outputs": [
        {
          "internalType": "uint256",
          "name": "",
          "type": "uint256"
        }
      ],
      "stateMutability": "view",
      "type": "function"
    },
    {
      "inputs": [],
      "name": "_acceptAdmin",
      "outputs": [],
      "stateMutability": "nonpayable",
      "type": "function"
    },
    {
      "inputs": [
        {
          "internalType": "address",
          "name": "governorAlpha",
          "type": "address"
        }
      ],
      "name": "_initiate",
      "outputs": [],
      "stateMutability": "nonpayable",
      "type": "function"
    },
    {
      "inputs": [
        {
          "internalType": "address",
          "name": "newPendingAdmin",
          "type": "address"
        }
      ],
      "name": "_setPendingAdmin",
      "outputs": [],
      "stateMutability": "nonpayable",
      "type": "function"
    },
    {
      "inputs": [
        {
          "internalType": "uint256",
          "name": "newProposalThreshold",
          "type": "uint256"
        }
      ],
      "name": "_setProposalThreshold",
      "outputs": [],
      "stateMutability": "nonpayable",
      "type": "function"
    },
    {
      "inputs": [
        {
          "internalType": "uint256",
          "name": "newVotingDelay",
          "type": "uint256"
        }
      ],
      "name": "_setVotingDelay",
      "outputs": [],
      "stateMutability": "nonpayable",
      "type": "function"
    },
    {
      "inputs": [
        {
          "internalType": "uint256",
          "name": "newVotingPeriod",
          "type": "uint256"
        }
      ],
      "name": "_setVotingPeriod",
      "outputs": [],
      "stateMutability": "nonpayable",
      "type": "function"
    },
    {
      "inputs": [
        {
          "internalType": "address",
          "name": "account",
          "type": "address"
        },
        {
          "internalType": "uint256",
          "name": "expiration",
          "type": "uint256"
        }
      ],
      "name": "_setWhitelistAccountExpiration",
      "outputs": [],
      "stateMutability": "nonpayable",
      "type": "function"
    },
    {
      "inputs": [
        {
          "internalType": "address",
          "name": "account",
          "type": "address"
        }
      ],
      "name": "_setWhitelistGuardian",
      "outputs": [],
      "stateMutability": "nonpayable",
      "type": "function"
    },
    {
      "inputs": [],
      "name": "admin",
      "outputs": [
        {
          "internalType": "address",
          "name": "",
          "type": "address"
        }
      ],
      "stateMutability": "view",
      "type": "function"
    },
    {
      "inputs": [
        {
          "internalType": "uint256",
          "name": "proposalId",
          "type": "uint256"
        }
      ],
      "name": "cancel",
      "outputs": [],
      "stateMutability": "nonpayable",
      "type": "function"
    },
    {
      "inputs": [
        {
          "internalType": "uint256",
          "name": "proposalId",
          "type": "uint256"
        },
        {
          "internalType": "uint8",
          "name": "support",
          "type": "uint8"
        }
      ],
      "name": "castVote",
      "outputs": [],
      "stateMutability": "nonpayable",
      "type": "function"
    },
    {
      "inputs": [
        {
          "internalType": "uint256",
          "name": "proposalId",
          "type": "uint256"
        },
        {
          "internalType": "uint8",
          "name": "support",
          "type": "uint8"
        },
        {
          "internalType": "uint8",
          "name": "v",
          "type": "uint8"
        },
        {
          "internalType": "bytes32",
          "name": "r",
          "type": "bytes32"
        },
        {
          "internalType": "bytes32",
          "name": "s",
          "type": "bytes32"
        }
      ],
      "name": "castVoteBySig",
      "outputs": [],
      "stateMutability": "nonpayable",
      "type": "function"
    },
    {
      "inputs": [
        {
          "internalType": "uint256",
          "name": "proposalId",
          "type": "uint256"
        },
        {
          "internalType": "uint8",
          "name": "support",
          "type": "uint8"
        },
        {
          "internalType": "string",
          "name": "reason",
          "type": "string"
        }
      ],
      "name": "castVoteWithReason",
      "outputs": [],
      "stateMutability": "nonpayable",
      "type": "function"
    },
    {
      "inputs": [],
      "name": "comp",
      "outputs": [
        {
          "internalType": "contract CompInterface",
          "name": "",
          "type": "address"
        }
      ],
      "stateMutability": "view",
      "type": "function"
    },
    {
      "inputs": [
        {
          "internalType": "uint256",
          "name": "proposalId",
          "type": "uint256"
        }
      ],
      "name": "execute",
      "outputs": [],
      "stateMutability": "payable",
      "type": "function"
    },
    {
      "inputs": [
        {
          "internalType": "uint256",
          "name": "proposalId",
          "type": "uint256"
        }
      ],
      "name": "getActions",
      "outputs": [
        {
          "internalType": "address[]",
          "name": "targets",
          "type": "address[]"
        },
        {
          "internalType": "uint256[]",
          "name": "values",
          "type": "uint256[]"
        },
        {
          "internalType": "string[]",
          "name": "signatures",
          "type": "string[]"
        },
        {
          "internalType": "bytes[]",
          "name": "calldatas",
          "type": "bytes[]"
        }
      ],
      "stateMutability": "view",
      "type": "function"
    },
    {
      "inputs": [
        {
          "internalType": "uint256",
          "name": "proposalId",
          "type": "uint256"
        },
        {
          "internalType": "address",
          "name": "voter",
          "type": "address"
        }
      ],
      "name": "getReceipt",
      "outputs": [
        {
          "components": [
            {
              "internalType": "bool",
              "name": "hasVoted",
              "type": "bool"
            },
            {
              "internalType": "uint8",
              "name": "support",
              "type": "uint8"
            },
            {
              "internalType": "uint96",
              "name": "votes",
              "type": "uint96"
            }
          ],
          "internalType": "struct GovernorBravoDelegateStorageV1.Receipt",
          "name": "",
          "type": "tuple"
        }
      ],
      "stateMutability": "view",
      "type": "function"
    },
    {
      "inputs": [],
      "name": "implementation",
      "outputs": [
        {
          "internalType": "address",
          "name": "",
          "type": "address"
        }
      ],
      "stateMutability": "view",
      "type": "function"
    },
    {
      "inputs": [],
      "name": "initialProposalId",
      "outputs": [
        {
          "internalType": "uint256",
          "name": "",
          "type": "uint256"
        }
      ],
      "stateMutability": "view",
      "type": "function"
    },
    {
      "inputs": [
        {
          "internalType": "address",
          "name": "timelock_",
          "type": "address"
        },
        {
          "internalType": "address",
          "name": "comp_",
          "type": "address"
        },
        {
          "internalType": "uint256",
          "name": "votingPeriod_",
          "type": "uint256"
        },
        {
          "internalType": "uint256",
          "name": "votingDelay_",
          "type": "uint256"
        },
        {
          "internalType": "uint256",
          "name": "proposalThreshold_",
          "type": "uint256"
        }
      ],
      "name": "initialize",
      "outputs": [],
      "stateMutability": "nonpayable",
      "type": "function"
    },
    {
      "inputs": [
        {
          "internalType": "address",
          "name": "account",
          "type": "address"
        }
      ],
      "name": "isWhitelisted",
      "outputs": [
        {
          "internalType": "bool",
          "name": "",
          "type": "bool"
        }
      ],
      "stateMutability": "view",
      "type": "function"
    },
    {
      "inputs": [
        {
          "internalType": "address",
          "name": "",
          "type": "address"
        }
      ],
      "name": "latestProposalIds",
      "outputs": [
        {
          "internalType": "uint256",
          "name": "",
          "type": "uint256"
        }
      ],
      "stateMutability": "view",
      "type": "function"
    },
    {
      "inputs": [],
      "name": "name",
      "outputs": [
        {
          "internalType": "string",
          "name": "",
          "type": "string"
        }
      ],
      "stateMutability": "view",
      "type": "function"
    },
    {
      "inputs": [],
      "name": "pendingAdmin",
      "outputs": [
        {
          "internalType": "address",
          "name": "",
          "type": "address"
        }
      ],
      "stateMutability": "view",
      "type": "function"
    },
    {
      "inputs": [],
      "name": "proposalCount",
      "outputs": [
        {
          "internalType": "uint256",
          "name": "",
          "type": "uint256"
        }
      ],
      "stateMutability": "view",
      "type": "function"
    },
    {
      "inputs": [],
      "name": "proposalMaxOperations",
      "outputs": [
        {
          "internalType": "uint256",
          "name": "",
          "type": "uint256"
        }
      ],
      "stateMutability": "view",
      "type": "function"
    },
    {
      "inputs": [],
      "name": "proposalThreshold",
      "outputs": [
        {
          "internalType": "uint256",
          "name": "",
          "type": "uint256"
        }
      ],
      "stateMutability": "view",
      "type": "function"
    },
    {
      "inputs": [
        {
          "internalType": "uint256",
          "name": "",
          "type": "uint256"
        }
      ],
      "name": "proposals",
      "outputs": [
        {
          "internalType": "uint256",
          "name": "id",
          "type": "uint256"
        },
        {
          "internalType": "address",
          "name": "proposer",
          "type": "address"
        },
        {
          "internalType": "uint256",
          "name": "eta",
          "type": "uint256"
        },
        {
          "internalType": "uint256",
          "name": "startBlock",
          "type": "uint256"
        },
        {
          "internalType": "uint256",
          "name": "endBlock",
          "type": "uint256"
        },
        {
          "internalType": "uint256",
          "name": "forVotes",
          "type": "uint256"
        },
        {
          "internalType": "uint256",
          "name": "againstVotes",
          "type": "uint256"
        },
        {
          "internalType": "uint256",
          "name": "abstainVotes",
          "type": "uint256"
        },
        {
          "internalType": "bool",
          "name": "canceled",
          "type": "bool"
        },
        {
          "internalType": "bool",
          "name": "executed",
          "type": "bool"
        }
      ],
      "stateMutability": "view",
      "type": "function"
    },
    {
      "inputs": [
        {
          "internalType": "address[]",
          "name": "targets",
          "type": "address[]"
        },
        {
          "internalType": "uint256[]",
          "name": "values",
          "type": "uint256[]"
        },
        {
          "internalType": "string[]",
          "name": "signatures",
          "type": "string[]"
        },
        {
          "internalType": "bytes[]",
          "name": "calldatas",
          "type": "bytes[]"
        },
        {
          "internalType": "string",
          "name": "description",
          "type": "string"
        }
      ],
      "name": "propose",
      "outputs": [
        {
          "internalType": "uint256",
          "name": "",
          "type": "uint256"
        }
      ],
      "stateMutability": "nonpayable",
      "type": "function"
    },
    {
      "inputs": [
        {
          "internalType": "uint256",
          "name": "proposalId",
          "type": "uint256"
        }
      ],
      "name": "queue",
      "outputs": [],
      "stateMutability": "nonpayable",
      "type": "function"
    },
    {
      "inputs": [],
      "name": "quorumVotes",
      "outputs": [
        {
          "internalType": "uint256",
          "name": "",
          "type": "uint256"
        }
      ],
      "stateMutability": "view",
      "type": "function"
    },
    {
      "inputs": [
        {
          "internalType": "uint256",
          "name": "proposalId",
          "type": "uint256"
        }
      ],
      "name": "state",
      "outputs": [
        {
          "internalType": "enum GovernorBravoDelegateStorageV1.ProposalState",
          "name": "",
          "type": "uint8"
        }
      ],
      "stateMutability": "view",
      "type": "function"
    },
    {
      "inputs": [],
      "name": "timelock",
      "outputs": [
        {
          "internalType": "contract TimelockInterface",
          "name": "",
          "type": "address"
        }
      ],
      "stateMutability": "view",
      "type": "function"
    },
    {
      "inputs": [],
      "name": "votingDelay",
      "outputs": [
        {
          "internalType": "uint256",
          "name": "",
          "type": "uint256"
        }
      ],
      "stateMutability": "view",
      "type": "function"
    },
    {
      "inputs": [],
      "name": "votingPeriod",
      "outputs": [
        {
          "internalType": "uint256",
          "name": "",
          "type": "uint256"
        }
      ],
      "stateMutability": "view",
      "type": "function"
    },
    {
      "inputs": [
        {
          "internalType": "address",
          "name": "",
          "type": "address"
        }
      ],
      "name": "whitelistAccountExpirations",
      "outputs": [
        {
          "internalType": "uint256",
          "name": "",
          "type": "uint256"
        }
      ],
      "stateMutability": "view",
      "type": "function"
    },
    {
      "inputs": [],
      "name": "whitelistGuardian",
      "outputs": [
        {
          "internalType": "address",
          "name": "",
          "type": "address"
        }
      ],
      "stateMutability": "view",
      "type": "function"
    }
  ],
  "bytecode": "0x608060405234801561001057600080fd5b50614105806100206000396000f3fe6080604052600436106102725760003560e01c80635c60da1b1161014f578063d33219b4116100c1578063e48083fe1161007a578063e48083fe1461086b578063e9c714f214610880578063f851a44014610895578063f9d28b80146108b5578063fc4eee42146108d5578063fe0d94c1146108eb57600080fd5b8063d33219b414610771578063da35c66414610791578063da95691a146107a7578063ddf0b009146107c7578063deaaa7cc146107e7578063e23a9a521461081b57600080fd5b8063a64e024a11610113578063a64e024a146106ce578063b1126263146106e5578063b58131b0146106fb578063b71d1a0c14610711578063c5a8425d14610731578063d13f90b41461075157600080fd5b80635c60da1b1461063b578063791f5d231461065b5780637b3c71d3146106795780637bdbe4d01461069957806399533365146106ae57600080fd5b806325fd935a116101e85780633af32abf116101ac5780633af32abf146105465780633bccf4fd1461058e5780633e4f49e6146105ae57806340e58ee5146105db5780634d6733d2146105fb578063567813881461061b57600080fd5b806325fd935a1461049557806326782247146104b3578063328dd982146104d357806338bd0dda146105035780633932abb11461053057600080fd5b806317977c611161023a57806317977c61146103c057806317ba1b8b146103ed5780631dfb1b5a1461040d57806320606b701461042d578063215809ca1461046157806324bc1a641461047757600080fd5b8063013cf08b1461027757806302a251a3146102f257806306fdde03146103165780630ea2d98c14610366578063109d0af814610388575b600080fd5b34801561028357600080fd5b506102976102923660046135b1565b6108fe565b604080519a8b526001600160a01b0390991660208b0152978901969096526060880194909452608087019290925260a086015260c085015260e084015215156101008301521515610120820152610140015b60405180910390f35b3480156102fe57600080fd5b5061030860045481565b6040519081526020016102e9565b34801561032257600080fd5b5061035960405180604001604052806017815260200176436f6d706f756e6420476f7665726e6f7220427261766f60481b81525081565b6040516102e99190613626565b34801561037257600080fd5b506103866103813660046135b1565b61096f565b005b34801561039457600080fd5b506009546103a8906001600160a01b031681565b6040516001600160a01b0390911681526020016102e9565b3480156103cc57600080fd5b506103086103db366004613655565b600b6020526000908152604090205481565b3480156103f957600080fd5b506103866104083660046135b1565b610aa8565b34801561041957600080fd5b506103866104283660046135b1565b610bf1565b34801561043957600080fd5b506103087f8cad95687ba82c2ce50e74f7b754645e5117c3a5bec8151c0726d5857980a86681565b34801561046d57600080fd5b5061030861168081565b34801561048357600080fd5b506103086954b40b1f852bda00000081565b3480156104a157600080fd5b5061030869152d02c7e14af680000081565b3480156104bf57600080fd5b506001546103a8906001600160a01b031681565b3480156104df57600080fd5b506104f36104ee3660046135b1565b610d18565b6040516102e99493929190613739565b34801561050f57600080fd5b5061030861051e366004613655565b600c6020526000908152604090205481565b34801561053c57600080fd5b5061030860035481565b34801561055257600080fd5b5061057e610561366004613655565b6001600160a01b03166000908152600c6020526040902054421090565b60405190151581526020016102e9565b34801561059a57600080fd5b506103866105a93660046137a2565b610fb7565b3480156105ba57600080fd5b506105ce6105c93660046135b1565b611234565b6040516102e99190613806565b3480156105e757600080fd5b506103866105f63660046135b1565b611404565b34801561060757600080fd5b5061038661061636600461382e565b61186e565b34801561062757600080fd5b50610386610636366004613858565b611954565b34801561064757600080fd5b506002546103a8906001600160a01b031681565b34801561066757600080fd5b50610308690a968163f0a57b40000081565b34801561068557600080fd5b50610386610694366004613884565b6119bf565b3480156106a557600080fd5b50610308600a81565b3480156106ba57600080fd5b506103866106c9366004613655565b611a0f565b3480156106da57600080fd5b5061030862013b0081565b3480156106f157600080fd5b50610308619d8081565b34801561070757600080fd5b5061030860055481565b34801561071d57600080fd5b5061038661072c366004613655565b611adc565b34801561073d57600080fd5b50600d546103a8906001600160a01b031681565b34801561075d57600080fd5b5061038661076c36600461390b565b611ba3565b34801561077d57600080fd5b506008546103a8906001600160a01b031681565b34801561079d57600080fd5b5061030860075481565b3480156107b357600080fd5b506103086107c2366004613c26565b611ec3565b3480156107d357600080fd5b506103866107e23660046135b1565b612526565b3480156107f357600080fd5b506103087f150214d74d59b7d1e90c73fc22ef3d991dd0a76b046543d4d80ab92d2a50328f81565b34801561082757600080fd5b5061083b610836366004613cf8565b612851565b6040805182511515815260208084015160ff1690820152918101516001600160601b0316908201526060016102e9565b34801561087757600080fd5b50610308600181565b34801561088c57600080fd5b506103866128e7565b3480156108a157600080fd5b506000546103a8906001600160a01b031681565b3480156108c157600080fd5b506103866108d0366004613655565b612a11565b3480156108e157600080fd5b5061030860065481565b6103866108f93660046135b1565b612bad565b600a818154811061090e57600080fd5b60009182526020909120600e90910201805460018201546002830154600784015460088501546009860154600a870154600b880154600c909801549698506001600160a01b0390951696939592949193909260ff808216916101009004168a565b6000546001600160a01b031633146109e25760405162461bcd60e51b815260206004820152602b60248201527f476f7665726e6f72427261766f3a3a5f736574566f74696e67506572696f643a60448201526a2061646d696e206f6e6c7960a81b60648201526084015b60405180910390fd5b61168081101580156109f7575062013b008111155b610a625760405162461bcd60e51b815260206004820152603660248201527f476f7665726e6f72427261766f3a3a5f736574566f74696e67506572696f643a604482015275081a5b9d985b1a59081d9bdd1a5b99c81c195c9a5bd960521b60648201526084016109d9565b600480549082905560408051828152602081018490527f7e3f7f0708a84de9203036abaa450dccc85ad5ff52f78c170f3edb55cf5e882891015b60405180910390a15050565b6000546001600160a01b03163314610b1b5760405162461bcd60e51b815260206004820152603060248201527f476f7665726e6f72427261766f3a3a5f73657450726f706f73616c546872657360448201526f686f6c643a2061646d696e206f6e6c7960801b60648201526084016109d9565b690a968163f0a57b4000008110158015610b3f575069152d02c7e14af68000008111155b610bb3576040805162461bcd60e51b81526020600482015260248101919091527f476f7665726e6f72427261766f3a3a5f73657450726f706f73616c546872657360448201527f686f6c643a20696e76616c69642070726f706f73616c207468726573686f6c6460648201526084016109d9565b600580549082905560408051828152602081018490527fccb45da8d5717e6c4544694297c4ba5cf151d455c9bb0ed4fc7a38411bc054619101610a9c565b6000546001600160a01b03163314610c5e5760405162461bcd60e51b815260206004820152602a60248201527f476f7665726e6f72427261766f3a3a5f736574566f74696e6744656c61793a2060448201526961646d696e206f6e6c7960b01b60648201526084016109d9565b60018110158015610c715750619d808111155b610cda5760405162461bcd60e51b815260206004820152603460248201527f476f7665726e6f72427261766f3a3a5f736574566f74696e6744656c61793a20604482015273696e76616c696420766f74696e672064656c617960601b60648201526084016109d9565b600380549082905560408051828152602081018490527fc565b045403dc03c2eea82b81a0465edad9e2e7fc4d97e11421c209da93d7a939101610a9c565b6060806060806000600a8681548110610d3357610d33613d1b565b90600052602060002090600e020190508060030181600401826005018360060183805480602002602001604051908101604052809291908181526020018280548015610da857602002820191906000526020600020905b81546001600160a01b03168152600190910190602001808311610d8a575b5050505050935082805480602002602001604051908101604052809291908181526020018280548015610dfa57602002820191906000526020600020905b815481526020019060010190808311610de6575b5050505050925081805480602002602001604051908101604052809291908181526020016000905b82821015610ece578382906000526020600020018054610e4190613d31565b80601f0160208091040260200160405190810160405280929190818152602001828054610e6d90613d31565b8015610eba5780601f10610e8f57610100808354040283529160200191610eba565b820191906000526020600020905b815481529060010190602001808311610e9d57829003601f168201915b505050505081526020019060010190610e22565b50505050915080805480602002602001604051908101604052809291908181526020016000905b82821015610fa1578382906000526020600020018054610f1490613d31565b80601f0160208091040260200160405190810160405280929190818152602001828054610f4090613d31565b8015610f8d5780601f10610f6257610100808354040283529160200191610f8d565b820191906000526020600020905b815481529060010190602001808311610f7057829003601f168201915b505050505081526020019060010190610ef5565b5050505090509450945094509450509193509193565b6040805180820182526017815276436f6d706f756e6420476f7665726e6f7220427261766f60481b60209182015281517f8cad95687ba82c2ce50e74f7b754645e5117c3a5bec8151c0726d5857980a866818301527f3d9e905142ff365fb68ce863f26a44f5583cf7ec11bcde450555f50b7e1b561481840152466060820152306080808301919091528351808303909101815260a0820184528051908301207f150214d74d59b7d1e90c73fc22ef3d991dd0a76b046543d4d80ab92d2a50328f60c083015260e0820189905260ff8816610100808401919091528451808403909101815261012083019094528351939092019290922061190160f01b6101408401526101428301829052610162830181905290916000906101820160408051601f198184030181528282528051602091820120600080855291840180845281905260ff8a169284019290925260608301889052608083018790529092509060019060a0016020604051602081039080840390855afa15801561113e573d6000803e3d6000fd5b5050604051601f1901519150506001600160a01b0381166111b95760405162461bcd60e51b815260206004820152602f60248201527f476f7665726e6f72427261766f3a3a63617374566f746542795369673a20696e60448201526e76616c6964207369676e617475726560881b60648201526084016109d9565b806001600160a01b03167fb8e138887d0aa13bab447e82de9d5c1777041ecd21ca36ba824ff1e6c07ddda48a8a6111f1858e8e612e02565b6040805193845260ff90921660208401526001600160601b03169082015260806060820181905260009082015260a00160405180910390a2505050505050505050565b60008160075410158015611249575060065482115b6112a75760405162461bcd60e51b815260206004820152602960248201527f476f7665726e6f72427261766f3a3a73746174653a20696e76616c69642070726044820152681bdc1bdcd85b081a5960ba1b60648201526084016109d9565b6000600a83815481106112bc576112bc613d1b565b60009182526020909120600e90910201600c81015490915060ff16156112e55750600292915050565b806007015443116112f95750600092915050565b8060080154431161130d5750600192915050565b80600a0154816009015411158061133157506954b40b1f852bda0000008160090154105b1561133f5750600392915050565b60028101546113515750600492915050565b600c810154610100900460ff161561136c5750600792915050565b6002810154600854604080516360d143f160e11b815290516113e693926001600160a01b03169163c1a287e29160048083019260209291908290030181865afa1580156113bd573d6000803e3d6000fd5b505050506040513d601f19601f820116820180604052508101906113e19190613d66565b6130fb565b42106113f55750600692915050565b50600592915050565b50919050565b600761140f82611234565b6007811115611420576114206137f0565b141561148d5760405162461bcd60e51b815260206004820152603660248201527f476f7665726e6f72427261766f3a3a63616e63656c3a2063616e6e6f742063616044820152751b98d95b08195e1958dd5d1959081c1c9bdc1bdcd85b60521b60648201526084016109d9565b6000600a82815481106114a2576114a2613d1b565b60009182526020909120600e9091020160018101549091506001600160a01b031633146117125760018101546001600160a01b03166000908152600c602052604090205442101561160b576005546009546001838101546001600160a01b039283169263782d6fe192911690611519904390613155565b6040516001600160e01b031960e085901b1681526001600160a01b0390921660048301526024820152604401602060405180830381865afa158015611562573d6000803e3d6000fd5b505050506040513d601f19601f820116820180604052508101906115869190613d7f565b6001600160601b03161080156115a65750600d546001600160a01b031633145b6116065760405162461bcd60e51b815260206004820152602b60248201527f476f7665726e6f72427261766f3a3a63616e63656c3a2077686974656c69737460448201526a32b210383937b837b9b2b960a91b60648201526084016109d9565b611712565b6005546009546001838101546001600160a01b039283169263782d6fe192911690611637904390613155565b6040516001600160e01b031960e085901b1681526001600160a01b0390921660048301526024820152604401602060405180830381865afa158015611680573d6000803e3d6000fd5b505050506040513d601f19601f820116820180604052508101906116a49190613d7f565b6001600160601b0316106117125760405162461bcd60e51b815260206004820152602f60248201527f476f7665726e6f72427261766f3a3a63616e63656c3a2070726f706f7365722060448201526e18589bdd99481d1a1c995cda1bdb19608a1b60648201526084016109d9565b600c8101805460ff1916600117905560005b600382015481101561183d576008546003830180546001600160a01b039092169163591fcdfe91908490811061175c5761175c613d1b565b6000918252602090912001546004850180546001600160a01b03909216918590811061178a5761178a613d1b565b90600052602060002001548560050185815481106117aa576117aa613d1b565b906000526020600020018660060186815481106117c9576117c9613d1b565b9060005260206000200187600201546040518663ffffffff1660e01b81526004016117f8959493929190613e49565b600060405180830381600087803b15801561181257600080fd5b505af1158015611826573d6000803e3d6000fd5b50505050808061183590613eab565b915050611724565b506040518281527f789cf55be980739dad1d0699b93b58e806b51c9d96619bfa8fe0a28abaa7b30c90602001610a9c565b6000546001600160a01b03163314806118915750600d546001600160a01b031633145b6119035760405162461bcd60e51b815260206004820152603960248201527f476f7665726e6f72427261766f3a3a5f73657457686974656c6973744163636f60448201527f756e7445787069726174696f6e3a2061646d696e206f6e6c790000000000000060648201526084016109d9565b6001600160a01b0382166000818152600c6020908152604091829020849055815192835282018390527f4e7b7545bc5744d0e30425959f4687475774b6c7edad77d24cb51c7d967d45159101610a9c565b337fb8e138887d0aa13bab447e82de9d5c1777041ecd21ca36ba824ff1e6c07ddda48383611983848383612e02565b6040805193845260ff90921660208401526001600160601b03169082015260806060820181905260009082015260a00160405180910390a25050565b337fb8e138887d0aa13bab447e82de9d5c1777041ecd21ca36ba824ff1e6c07ddda485856119ee848383612e02565b8686604051611a01959493929190613ec6565b60405180910390a250505050565b6000546001600160a01b03163314611a825760405162461bcd60e51b815260206004820152603060248201527f476f7665726e6f72427261766f3a3a5f73657457686974656c6973744775617260448201526f6469616e3a2061646d696e206f6e6c7960801b60648201526084016109d9565b600d80546001600160a01b038381166001600160a01b031983168117909355604080519190921680825260208201939093527f80a07e73e552148844a9c216d9724212d609cfa54e9c1a2e97203bdd2c4ad3419101610a9c565b6000546001600160a01b03163314611b495760405162461bcd60e51b815260206004820152602a60248201527f476f7665726e6f72427261766f3a5f73657450656e64696e6741646d696e3a2060448201526961646d696e206f6e6c7960b01b60648201526084016109d9565b600180546001600160a01b038381166001600160a01b031983168117909355604080519190921680825260208201939093527fca4f2f25d0898edd99413412fb94012f9e54ec8142f9b093e7720646a95b16a99101610a9c565b6008546001600160a01b031615611c185760405162461bcd60e51b815260206004820152603360248201527f476f7665726e6f72427261766f3a3a696e697469616c697a653a2063616e206f6044820152726e6c7920696e697469616c697a65206f6e636560681b60648201526084016109d9565b6000546001600160a01b03163314611c805760405162461bcd60e51b815260206004820152602560248201527f476f7665726e6f72427261766f3a3a696e697469616c697a653a2061646d696e604482015264206f6e6c7960d81b60648201526084016109d9565b6001600160a01b038516611ce05760405162461bcd60e51b815260206004820152603360248201526000805160206140b083398151915260448201527269642074696d656c6f636b206164647265737360681b60648201526084016109d9565b6001600160a01b038416611d3c5760405162461bcd60e51b815260206004820152602f60248201526000805160206140b083398151915260448201526e696420636f6d70206164647265737360881b60648201526084016109d9565b6116808310158015611d51575062013b008311155b611da45760405162461bcd60e51b815260206004820152603060248201526000805160206140b083398151915260448201526f1a59081d9bdd1a5b99c81c195c9a5bd960821b60648201526084016109d9565b60018210158015611db75750619d808211155b611e095760405162461bcd60e51b815260206004820152602f60248201526000805160206140b083398151915260448201526e696420766f74696e672064656c617960881b60648201526084016109d9565b690a968163f0a57b4000008110158015611e2d575069152d02c7e14af68000008111155b611e855760405162461bcd60e51b815260206004820152603560248201526000805160206140b08339815191526044820152741a59081c1c9bdc1bdcd85b081d1a1c995cda1bdb19605a1b60648201526084016109d9565b600880546001600160a01b039687166001600160a01b0319918216179091556009805495909616941693909317909355600455600391909155600555565b600060065460001415611f325760405162461bcd60e51b815260206004820152603160248201527f476f7665726e6f72427261766f3a3a70726f706f73653a20476f7665726e6f7260448201527020427261766f206e6f742061637469766560781b60648201526084016109d9565b6005546009546001600160a01b031663782d6fe133611f52436001613155565b6040516001600160e01b031960e085901b1681526001600160a01b0390921660048301526024820152604401602060405180830381865afa158015611f9b573d6000803e3d6000fd5b505050506040513d601f19601f82011682018060405250810190611fbf9190613d7f565b6001600160601b03161180611fe25750336000908152600c602052604090205442105b6120545760405162461bcd60e51b815260206004820152603f60248201527f476f7665726e6f72427261766f3a3a70726f706f73653a2070726f706f73657260448201527f20766f7465732062656c6f772070726f706f73616c207468726573686f6c640060648201526084016109d9565b84518651148015612066575083518651145b8015612073575082518651145b6120f35760405162461bcd60e51b8152602060048201526044602482018190527f476f7665726e6f72427261766f3a3a70726f706f73653a2070726f706f73616c908201527f2066756e6374696f6e20696e666f726d6174696f6e206172697479206d69736d6064820152630c2e8c6d60e31b608482015260a4016109d9565b85516121565760405162461bcd60e51b815260206004820152602c60248201527f476f7665726e6f72427261766f3a3a70726f706f73653a206d7573742070726f60448201526b7669646520616374696f6e7360a01b60648201526084016109d9565b600a865111156121b95760405162461bcd60e51b815260206004820152602860248201527f476f7665726e6f72427261766f3a3a70726f706f73653a20746f6f206d616e7960448201526720616374696f6e7360c01b60648201526084016109d9565b336000908152600b6020526040902054801561233a5760006121da82611234565b905060018160078111156121f0576121f06137f0565b141561228a5760405162461bcd60e51b815260206004820152605860248201527f476f7665726e6f72427261766f3a3a70726f706f73653a206f6e65206c69766560448201527f2070726f706f73616c207065722070726f706f7365722c20666f756e6420616e60648201527f20616c7265616479206163746976652070726f706f73616c0000000000000000608482015260a4016109d9565b600081600781111561229e5761229e6137f0565b14156123385760405162461bcd60e51b815260206004820152605960248201527f476f7665726e6f72427261766f3a3a70726f706f73653a206f6e65206c69766560448201527f2070726f706f73616c207065722070726f706f7365722c20666f756e6420616e60648201527f20616c72656164792070656e64696e672070726f706f73616c00000000000000608482015260a4016109d9565b505b6000612348436003546130fb565b90506000612358826004546130fb565b60078054919250600061236a83613eab565b9091555050600a80546001018082556000828152600754909291811061239257612392613d1b565b60009182526020808320600754600e909302019182556001820180546001600160a01b0319163317905560028201929092558b519092506123db916003840191908d0190613360565b5088516123f190600483019060208c01906133c5565b50875161240790600583019060208b0190613400565b50865161241d90600683019060208a0190613459565b5082816007018190555081816008018190555060008160090181905550600081600a0181905550600081600b0181905550600081600c0160006101000a81548160ff021916908315150217905550600081600c0160016101000a81548160ff0219169083151502179055508060000154600b60008360010160009054906101000a90046001600160a01b03166001600160a01b03166001600160a01b03168152602001908152602001600020819055507f7d84a6263ae0d98d3329bd7b46bb4e8d6f98cd35a7adb45c274c8b7fd5ebd5e08160000154338c8c8c8c89898e60405161251099989796959493929190613f16565b60405180910390a1549998505050505050505050565b600461253182611234565b6007811115612542576125426137f0565b146125c35760405162461bcd60e51b8152602060048201526044602482018190527f476f7665726e6f72427261766f3a3a71756575653a2070726f706f73616c2063908201527f616e206f6e6c79206265207175657565642069662069742069732073756363656064820152631959195960e21b608482015260a4016109d9565b6000600a82815481106125d8576125d8613d1b565b90600052602060002090600e02019050600061264142600860009054906101000a90046001600160a01b03166001600160a01b0316636a42b8f86040518163ffffffff1660e01b8152600401602060405180830381865afa1580156113bd573d6000803e3d6000fd5b905060005b600383015481101561280b576127f983600301828154811061266a5761266a613d1b565b6000918252602090912001546004850180546001600160a01b03909216918490811061269857612698613d1b565b90600052602060002001548560050184815481106126b8576126b8613d1b565b9060005260206000200180546126cd90613d31565b80601f01602080910402602001604051908101604052809291908181526020018280546126f990613d31565b80156127465780601f1061271b57610100808354040283529160200191612746565b820191906000526020600020905b81548152906001019060200180831161272957829003601f168201915b505050505086600601858154811061276057612760613d1b565b90600052602060002001805461277590613d31565b80601f01602080910402602001604051908101604052809291908181526020018280546127a190613d31565b80156127ee5780601f106127c3576101008083540402835291602001916127ee565b820191906000526020600020905b8154815290600101906020018083116127d157829003601f168201915b5050505050866131a9565b8061280381613eab565b915050612646565b506002820181905560408051848152602081018390527f9a2e42fd6722813d69113e7d0079d3d940171428df7373df9c7f7617cfda2892910160405180910390a1505050565b6040805160608101825260008082526020820181905291810191909152600a838154811061288157612881613d1b565b600091825260208083206001600160a01b03959095168352600e91909102909301600d0183526040908190208151606081018352905460ff8082161515835261010082041694820194909452620100009093046001600160601b03169083015250919050565b6001546001600160a01b03163314801561290057503315155b6129635760405162461bcd60e51b815260206004820152602e60248201527f476f7665726e6f72427261766f3a5f61636365707441646d696e3a2070656e6460448201526d696e672061646d696e206f6e6c7960901b60648201526084016109d9565b60008054600180546001600160a01b038082166001600160a01b031980861682179096559490911690915560408051919092168082526020820184905292917ff9ffabca9c8276e99321725bcb43fb076a6c66a54b7f21c4e8146d8519b417dc910160405180910390a1600154604080516001600160a01b03808516825290921660208301527fca4f2f25d0898edd99413412fb94012f9e54ec8142f9b093e7720646a95b16a99101610a9c565b6000546001600160a01b03163314612a775760405162461bcd60e51b8152602060048201526024808201527f476f7665726e6f72427261766f3a3a5f696e6974696174653a2061646d696e206044820152636f6e6c7960e01b60648201526084016109d9565b60065415612ae05760405162461bcd60e51b815260206004820152603060248201527f476f7665726e6f72427261766f3a3a5f696e6974696174653a2063616e206f6e60448201526f6c7920696e697469617465206f6e636560801b60648201526084016109d9565b806001600160a01b031663da35c6646040518163ffffffff1660e01b81526004016020604051808303816000875af1158015612b20573d6000803e3d6000fd5b505050506040513d601f19601f82011682018060405250810190612b449190613d66565b600781905560065560085460408051630e18b68160e01b815290516001600160a01b0390921691630e18b6819160048082019260009290919082900301818387803b158015612b9257600080fd5b505af1158015612ba6573d6000803e3d6000fd5b5050505050565b6005612bb882611234565b6007811115612bc957612bc96137f0565b14612c4a5760405162461bcd60e51b815260206004820152604560248201527f476f7665726e6f72427261766f3a3a657865637574653a2070726f706f73616c60448201527f2063616e206f6e6c7920626520657865637574656420696620697420697320716064820152641d595d595960da1b608482015260a4016109d9565b6000600a8281548110612c5f57612c5f613d1b565b600091825260208220600c600e90920201908101805461ff00191661010017905591505b6003820154811015612dd1576008546004830180546001600160a01b0390921691630825f38f919084908110612cbb57612cbb613d1b565b9060005260206000200154846003018481548110612cdb57612cdb613d1b565b6000918252602090912001546004860180546001600160a01b039092169186908110612d0957612d09613d1b565b9060005260206000200154866005018681548110612d2957612d29613d1b565b90600052602060002001876006018781548110612d4857612d48613d1b565b9060005260206000200188600201546040518763ffffffff1660e01b8152600401612d77959493929190613e49565b60006040518083038185885af1158015612d95573d6000803e3d6000fd5b50505050506040513d6000823e601f3d908101601f19168201604052612dbe9190810190613fae565b5080612dc981613eab565b915050612c83565b506040518281527f712ae1383f79ac853f8d882153778e0260ef8f03b504e2866e0593e04d2b291f90602001610a9c565b60006001612e0f84611234565b6007811115612e2057612e206137f0565b14612e875760405162461bcd60e51b815260206004820152603160248201527f476f7665726e6f72427261766f3a3a63617374566f7465496e7465726e616c3a604482015270081d9bdd1a5b99c81a5cc818db1bdcd959607a1b60648201526084016109d9565b60028260ff161115612ef65760405162461bcd60e51b815260206004820152603260248201527f476f7665726e6f72427261766f3a3a63617374566f7465496e7465726e616c3a60448201527120696e76616c696420766f7465207479706560701b60648201526084016109d9565b6000600a8481548110612f0b57612f0b613d1b565b600091825260208083206001600160a01b0389168452600d600e909302019182019052604090912080549192509060ff1615612fa65760405162461bcd60e51b815260206004820152603460248201527f476f7665726e6f72427261766f3a3a63617374566f7465496e7465726e616c3a604482015273081d9bdd195c88185b1c9958591e481d9bdd195960621b60648201526084016109d9565b600954600783015460405163782d6fe160e01b81526000926001600160a01b03169163782d6fe191612ff0918b916004016001600160a01b03929092168252602082015260400190565b602060405180830381865afa15801561300d573d6000803e3d6000fd5b505050506040513d601f19601f820116820180604052508101906130319190613d7f565b905060ff851661305c5761305283600a0154826001600160601b03166130fb565b600a8401556130b2565b8460ff16600114156130895761307f8360090154826001600160601b03166130fb565b60098401556130b2565b8460ff16600214156130b2576130ac83600b0154826001600160601b03166130fb565b600b8401555b81546001600160601b03821662010000026dffffffffffffffffffffffff00001960ff88166101000261ffff199093169290921760011791909116179091559150509392505050565b6000806131088385614025565b90508381101561314e5760405162461bcd60e51b81526020600482015260116024820152706164646974696f6e206f766572666c6f7760781b60448201526064016109d9565b9392505050565b60008282111561319f5760405162461bcd60e51b81526020600482015260156024820152747375627472616374696f6e20756e646572666c6f7760581b60448201526064016109d9565b61314e828461403d565b6008546040516001600160a01b039091169063f2b06537906131d79088908890889088908890602001614054565b604051602081830303815290604052805190602001206040518263ffffffff1660e01b815260040161320b91815260200190565b602060405180830381865afa158015613228573d6000803e3d6000fd5b505050506040513d601f19601f8201168201806040525081019061324c919061408d565b156132dd5760405162461bcd60e51b815260206004820152605560248201527f476f7665726e6f72427261766f3a3a71756575654f72526576657274496e746560448201527f726e616c3a206964656e746963616c2070726f706f73616c20616374696f6e20606482015274616c7265616479207175657565642061742065746160581b608482015260a4016109d9565b600854604051633a66f90160e01b81526001600160a01b0390911690633a66f901906133159088908890889088908890600401614054565b6020604051808303816000875af1158015613334573d6000803e3d6000fd5b505050506040513d601f19601f820116820180604052508101906133589190613d66565b505050505050565b8280548282559060005260206000209081019282156133b5579160200282015b828111156133b557825182546001600160a01b0319166001600160a01b03909116178255602090920191600190910190613380565b506133c19291506134b2565b5090565b8280548282559060005260206000209081019282156133b5579160200282015b828111156133b55782518255916020019190600101906133e5565b82805482825590600052602060002090810192821561344d579160200282015b8281111561344d578251805161343d9184916020909101906134c7565b5091602001919060010190613420565b506133c192915061353a565b8280548282559060005260206000209081019282156134a6579160200282015b828111156134a657825180516134969184916020909101906134c7565b5091602001919060010190613479565b506133c1929150613557565b5b808211156133c157600081556001016134b3565b8280546134d390613d31565b90600052602060002090601f0160209004810192826134f557600085556133b5565b82601f1061350e57805160ff19168380011785556133b5565b828001600101855582156133b557918201828111156133b55782518255916020019190600101906133e5565b808211156133c157600061354e8282613574565b5060010161353a565b808211156133c157600061356b8282613574565b50600101613557565b50805461358090613d31565b6000825580601f10613590575050565b601f0160209004906000526020600020908101906135ae91906134b2565b50565b6000602082840312156135c357600080fd5b5035919050565b60005b838110156135e55781810151838201526020016135cd565b838111156135f4576000848401525b50505050565b600081518084526136128160208601602086016135ca565b601f01601f19169290920160200192915050565b60208152600061314e60208301846135fa565b80356001600160a01b038116811461365057600080fd5b919050565b60006020828403121561366757600080fd5b61314e82613639565b600081518084526020808501945080840160005b838110156136a95781516001600160a01b031687529582019590820190600101613684565b509495945050505050565b600081518084526020808501945080840160005b838110156136a9578151875295820195908201906001016136c8565b600081518084526020808501808196508360051b8101915082860160005b8581101561372c57828403895261371a8483516135fa565b98850198935090840190600101613702565b5091979650505050505050565b60808152600061374c6080830187613670565b828103602084015261375e81876136b4565b9050828103604084015261377281866136e4565b9050828103606084015261378681856136e4565b979650505050505050565b803560ff8116811461365057600080fd5b600080600080600060a086880312156137ba57600080fd5b853594506137ca60208701613791565b93506137d860408701613791565b94979396509394606081013594506080013592915050565b634e487b7160e01b600052602160045260246000fd5b602081016008831061382857634e487b7160e01b600052602160045260246000fd5b91905290565b6000806040838503121561384157600080fd5b61384a83613639565b946020939093013593505050565b6000806040838503121561386b57600080fd5b8235915061387b60208401613791565b90509250929050565b6000806000806060858703121561389a57600080fd5b843593506138aa60208601613791565b9250604085013567ffffffffffffffff808211156138c757600080fd5b818701915087601f8301126138db57600080fd5b8135818111156138ea57600080fd5b8860208285010111156138fc57600080fd5b95989497505060200194505050565b600080600080600060a0868803121561392357600080fd5b61392c86613639565b945061393a60208701613639565b94979496505050506040830135926060810135926080909101359150565b634e487b7160e01b600052604160045260246000fd5b604051601f8201601f1916810167ffffffffffffffff8111828210171561399757613997613958565b604052919050565b600067ffffffffffffffff8211156139b9576139b9613958565b5060051b60200190565b600082601f8301126139d457600080fd5b813560206139e96139e48361399f565b61396e565b82815260059290921b84018101918181019086841115613a0857600080fd5b8286015b84811015613a2a57613a1d81613639565b8352918301918301613a0c565b509695505050505050565b600082601f830112613a4657600080fd5b81356020613a566139e48361399f565b82815260059290921b84018101918181019086841115613a7557600080fd5b8286015b84811015613a2a5780358352918301918301613a79565b600067ffffffffffffffff821115613aaa57613aaa613958565b50601f01601f191660200190565b6000613ac66139e484613a90565b9050828152838383011115613ada57600080fd5b828260208301376000602084830101529392505050565b600082601f830112613b0257600080fd5b61314e83833560208501613ab8565b600082601f830112613b2257600080fd5b81356020613b326139e48361399f565b82815260059290921b84018101918181019086841115613b5157600080fd5b8286015b84811015613a2a57803567ffffffffffffffff811115613b755760008081fd5b613b838986838b0101613af1565b845250918301918301613b55565b600082601f830112613ba257600080fd5b81356020613bb26139e48361399f565b82815260059290921b84018101918181019086841115613bd157600080fd5b8286015b84811015613a2a57803567ffffffffffffffff811115613bf55760008081fd5b8701603f81018913613c075760008081fd5b613c18898683013560408401613ab8565b845250918301918301613bd5565b600080600080600060a08688031215613c3e57600080fd5b853567ffffffffffffffff80821115613c5657600080fd5b613c6289838a016139c3565b96506020880135915080821115613c7857600080fd5b613c8489838a01613a35565b95506040880135915080821115613c9a57600080fd5b613ca689838a01613b11565b94506060880135915080821115613cbc57600080fd5b613cc889838a01613b91565b93506080880135915080821115613cde57600080fd5b50613ceb88828901613af1565b9150509295509295909350565b60008060408385031215613d0b57600080fd5b8235915061387b60208401613639565b634e487b7160e01b600052603260045260246000fd5b600181811c90821680613d4557607f821691505b602082108114156113fe57634e487b7160e01b600052602260045260246000fd5b600060208284031215613d7857600080fd5b5051919050565b600060208284031215613d9157600080fd5b81516001600160601b038116811461314e57600080fd5b8054600090600181811c9080831680613dc257607f831692505b6020808410821415613de457634e487b7160e01b600052602260045260246000fd5b838852818015613dfb5760018114613e0f57613e3d565b60ff19861689830152604089019650613e3d565b876000528160002060005b86811015613e355781548b8201850152908501908301613e1a565b8a0183019750505b50505050505092915050565b60018060a01b038616815284602082015260a060408201526000613e7060a0830186613da8565b8281036060840152613e828186613da8565b9150508260808301529695505050505050565b634e487b7160e01b600052601160045260246000fd5b6000600019821415613ebf57613ebf613e95565b5060010190565b85815260ff851660208201526001600160601b038416604082015260806060820152816080820152818360a0830137600081830160a090810191909152601f909201601f19160101949350505050565b8981526001600160a01b038916602082015261012060408201819052600090613f418382018b613670565b90508281036060840152613f55818a6136b4565b90508281036080840152613f6981896136e4565b905082810360a0840152613f7d81886136e4565b90508560c08401528460e0840152828103610100840152613f9e81856135fa565b9c9b505050505050505050505050565b600060208284031215613fc057600080fd5b815167ffffffffffffffff811115613fd757600080fd5b8201601f81018413613fe857600080fd5b8051613ff66139e482613a90565b81815285602083850101111561400b57600080fd5b61401c8260208301602086016135ca565b95945050505050565b6000821982111561403857614038613e95565b500190565b60008282101561404f5761404f613e95565b500390565b60018060a01b038616815284602082015260a06040820152600061407b60a08301866135fa565b8281036060840152613e8281866135fa565b60006020828403121561409f57600080fd5b8151801515811461314e57600080fdfe476f7665726e6f72427261766f3a3a696e697469616c697a653a20696e76616ca26469706673582212203f580643ba137e5deaec7ad06950a9d2fb9943a850840c32a0d07e239e8a611964736f6c634300080a0033",
  "linkReferences": {},
  "deployedLinkReferences": {}
}