{
  "_format": "hh-sol-artifact-1",
  "contractName": "GovernorBravoDelegate",
  "sourceName": "contracts/Governance/GovernorBravoDelegate.sol",
  "abi": [
    {
      "anonymous": false,
      "inputs": [
        {
          "indexed": false,
          "internalType": "address",
          "name": "oldAdmin",
          "type": "address"
        },
        {
          "indexed": false,
          "internalType": "address",
          "name": "newAdmin",
          "type": "address"
        }
      ],
      "name": "NewAdmin",
      "type": "event"
    },
    {
      "anonymous": false,
      "inputs": [
        {
          "indexed": false,
          "internalType": "address",
          "name": "oldImplementation",
          "type": "address"
        },
        {
          "indexed": false,
          "internalType": "address",
          "name": "newImplementation",
          "type": "address"
        }
      ],
      "name": "NewImplementation",
      "type": "event"
    },
    {
      "anonymous": false,
      "inputs": [
        {
          "indexed": false,
          "internalType": "address",
          "name": "oldPendingAdmin",
          "type": "address"
        },
        {
          "indexed": false,
          "internalType": "address",
          "name": "newPendingAdmin",
          "type": "address"
        }
      ],
      "name": "NewPendingAdmin",
      "type": "event"
    },
    {
      "anonymous": false,
      "inputs": [
        {
          "indexed": false,
          "internalType": "uint256",
          "name": "id",
          "type": "uint256"
        }
      ],
      "name": "ProposalCanceled",
      "type": "event"
    },
    {
      "anonymous": false,
      "inputs": [
        {
          "indexed": false,
          "internalType": "uint256",
          "name": "id",
          "type": "uint256"
        },
        {
          "indexed": false,
          "internalType": "address",
          "name": "proposer",
          "type": "address"
        },
        {
          "indexed": false,
          "internalType": "address[]",
          "name": "targets",
          "type": "address[]"
        },
        {
          "indexed": false,
          "internalType": "uint256[]",
          "name": "values",
          "type": "uint256[]"
        },
        {
          "indexed": false,
          "internalType": "string[]",
          "name": "signatures",
          "type": "string[]"
        },
        {
          "indexed": false,
          "internalType": "bytes[]",
          "name": "calldatas",
          "type": "bytes[]"
        },
        {
          "indexed": false,
          "internalType": "uint256",
          "name": "startBlock",
          "type": "uint256"
        },
        {
          "indexed": false,
          "internalType": "uint256",
          "name": "endBlock",
          "type": "uint256"
        },
        {
          "indexed": false,
          "internalType": "string",
          "name": "description",
          "type": "string"
        }
      ],
      "name": "ProposalCreated",
      "type": "event"
    },
    {
      "anonymous": false,
      "inputs": [
        {
          "indexed": false,
          "internalType": "uint256",
          "name": "id",
          "type": "uint256"
        }
      ],
      "name": "ProposalExecuted",
      "type": "event"
    },
    {
      "anonymous": false,
      "inputs": [
        {
          "indexed": false,
          "internalType": "uint256",
          "name": "id",
          "type": "uint256"
        },
        {
          "indexed": false,
          "internalType": "uint256",
          "name": "eta",
          "type": "uint256"
        }
      ],
      "name": "ProposalQueued",
      "type": "event"
    },
    {
      "anonymous": false,
      "inputs": [
        {
          "indexed": false,
          "internalType": "uint256",
          "name": "oldProposalThreshold",
          "type": "uint256"
        },
        {
          "indexed": false,
          "internalType": "uint256",
          "name": "newProposalThreshold",
          "type": "uint256"
        }
      ],
      "name": "ProposalThresholdSet",
      "type": "event"
    },
    {
      "anonymous": false,
      "inputs": [
        {
          "indexed": true,
          "internalType": "address",
          "name": "voter",
          "type": "address"
        },
        {
          "indexed": false,
          "internalType": "uint256",
          "name": "proposalId",
          "type": "uint256"
        },
        {
          "indexed": false,
          "internalType": "uint8",
          "name": "support",
          "type": "uint8"
        },
        {
          "indexed": false,
          "internalType": "uint256",
          "name": "votes",
          "type": "uint256"
        },
        {
          "indexed": false,
          "internalType": "string",
          "name": "reason",
          "type": "string"
        }
      ],
      "name": "VoteCast",
      "type": "event"
    },
    {
      "anonymous": false,
      "inputs": [
        {
          "indexed": false,
          "internalType": "uint256",
          "name": "oldVotingDelay",
          "type": "uint256"
        },
        {
          "indexed": false,
          "internalType": "uint256",
          "name": "newVotingDelay",
          "type": "uint256"
        }
      ],
      "name": "VotingDelaySet",
      "type": "event"
    },
    {
      "anonymous": false,
      "inputs": [
        {
          "indexed": false,
          "internalType": "uint256",
          "name": "oldVotingPeriod",
          "type": "uint256"
        },
        {
          "indexed": false,
          "internalType": "uint256",
          "name": "newVotingPeriod",
          "type": "uint256"
        }
      ],
      "name": "VotingPeriodSet",
      "type": "event"
    },
    {
      "anonymous": false,
      "inputs": [
        {
          "indexed": false,
          "internalType": "address",
          "name": "account",
          "type": "address"
        },
        {
          "indexed": false,
          "internalType": "uint256",
          "name": "expiration",
          "type": "uint256"
        }
      ],
      "name": "WhitelistAccountExpirationSet",
      "type": "event"
    },
    {
      "anonymous": false,
      "inputs": [
        {
          "indexed": false,
          "internalType": "address",
          "name": "oldGuardian",
          "type": "address"
        },
        {
          "indexed": false,
          "internalType": "address",
          "name": "newGuardian",
          "type": "address"
        }
      ],
      "name": "WhitelistGuardianSet",
      "type": "event"
    },
    {
      "inputs": [],
      "name": "BALLOT_TYPEHASH",
      "outputs": [
        {
          "internalType": "bytes32",
          "name": "",
          "type": "bytes32"
        }
      ],
      "stateMutability": "view",
      "type": "function"
    },
    {
      "inputs": [],
      "name": "DOMAIN_TYPEHASH",
      "outputs": [
        {
          "internalType": "bytes32",
          "name": "",
          "type": "bytes32"
        }
      ],
      "stateMutability": "view",
      "type": "function"
    },
    {
      "inputs": [],
      "name": "MAX_PROPOSAL_THRESHOLD",
      "outputs": [
        {
          "internalType": "uint256",
          "name": "",
          "type": "uint256"
        }
      ],
      "stateMutability": "view",
      "type": "function"
    },
    {
      "inputs": [],
      "name": "MAX_VOTING_DELAY",
      "outputs": [
        {
          "internalType": "uint256",
          "name": "",
          "type": "uint256"
        }
      ],
      "stateMutability": "view",
      "type": "function"
    },
    {
      "inputs": [],
      "name": "MAX_VOTING_PERIOD",
      "outputs": [
        {
          "internalType": "uint256",
          "name": "",
          "type": "uint256"
        }
      ],
      "stateMutability": "view",
      "type": "function"
    },
    {
      "inputs": [],
      "name": "MIN_PROPOSAL_THRESHOLD",
      "outputs": [
        {
          "internalType": "uint256",
          "name": "",
          "type": "uint256"
        }
      ],
      "stateMutability": "view",
      "type": "function"
    },
    {
      "inputs": [],
      "name": "MIN_VOTING_DELAY",
      "outputs": [
        {
          "internalType": "uint256",
          "name": "",
          "type": "uint256"
        }
      ],
      "stateMutability": "view",
      "type": "function"
    },
    {
      "inputs": [],
      "name": "MIN_VOTING_PERIOD",
      "outputs": [
        {
          "internalType": "uint256",
          "name": "",
          "type": "uint256"
        }
      ],
      "stateMutability": "view",
      "type": "function"
    },
    {
      "inputs": [],
      "name": "_acceptAdmin",
      "outputs": [],
      "stateMutability": "nonpayable",
      "type": "function"
    },
    {
      "inputs": [
        {
          "internalType": "address",
          "name": "governorAlpha",
          "type": "address"
        }
      ],
      "name": "_initiate",
      "outputs": [],
      "stateMutability": "nonpayable",
      "type": "function"
    },
    {
      "inputs": [
        {
          "internalType": "address",
          "name": "newPendingAdmin",
          "type": "address"
        }
      ],
      "name": "_setPendingAdmin",
      "outputs": [],
      "stateMutability": "nonpayable",
      "type": "function"
    },
    {
      "inputs": [
        {
          "internalType": "uint256",
          "name": "newProposalThreshold",
          "type": "uint256"
        }
      ],
      "name": "_setProposalThreshold",
      "outputs": [],
      "stateMutability": "nonpayable",
      "type": "function"
    },
    {
      "inputs": [
        {
          "internalType": "uint256",
          "name": "newVotingDelay",
          "type": "uint256"
        }
      ],
      "name": "_setVotingDelay",
      "outputs": [],
      "stateMutability": "nonpayable",
      "type": "function"
    },
    {
      "inputs": [
        {
          "internalType": "uint256",
          "name": "newVotingPeriod",
          "type": "uint256"
        }
      ],
      "name": "_setVotingPeriod",
      "outputs": [],
      "stateMutability": "nonpayable",
      "type": "function"
    },
    {
      "inputs": [
        {
          "internalType": "address",
          "name": "account",
          "type": "address"
        },
        {
          "internalType": "uint256",
          "name": "expiration",
          "type": "uint256"
        }
      ],
      "name": "_setWhitelistAccountExpiration",
      "outputs": [],
      "stateMutability": "nonpayable",
      "type": "function"
    },
    {
      "inputs": [
        {
          "internalType": "address",
          "name": "account",
          "type": "address"
        }
      ],
      "name": "_setWhitelistGuardian",
      "outputs": [],
      "stateMutability": "nonpayable",
      "type": "function"
    },
    {
      "inputs": [],
      "name": "admin",
      "outputs": [
        {
          "internalType": "address",
          "name": "",
          "type": "address"
        }
      ],
      "stateMutability": "view",
      "type": "function"
    },
    {
      "inputs": [
        {
          "internalType": "uint256",
          "name": "proposalId",
          "type": "uint256"
        }
      ],
      "name": "cancel",
      "outputs": [],
      "stateMutability": "nonpayable",
      "type": "function"
    },
    {
      "inputs": [
        {
          "internalType": "uint256",
          "name": "proposalId",
          "type": "uint256"
        },
        {
          "internalType": "uint8",
          "name": "support",
          "type": "uint8"
        }
      ],
      "name": "castVote",
      "outputs": [],
      "stateMutability": "nonpayable",
      "type": "function"
    },
    {
      "inputs": [
        {
          "internalType": "uint256",
          "name": "proposalId",
          "type": "uint256"
        },
        {
          "internalType": "uint8",
          "name": "support",
          "type": "uint8"
        },
        {
          "internalType": "uint8",
          "name": "v",
          "type": "uint8"
        },
        {
          "internalType": "bytes32",
          "name": "r",
          "type": "bytes32"
        },
        {
          "internalType": "bytes32",
          "name": "s",
          "type": "bytes32"
        }
      ],
      "name": "castVoteBySig",
      "outputs": [],
      "stateMutability": "nonpayable",
      "type": "function"
    },
    {
      "inputs": [
        {
          "internalType": "uint256",
          "name": "proposalId",
          "type": "uint256"
        },
        {
          "internalType": "uint8",
          "name": "support",
          "type": "uint8"
        },
        {
          "internalType": "string",
          "name": "reason",
          "type": "string"
        }
      ],
      "name": "castVoteWithReason",
      "outputs": [],
      "stateMutability": "nonpayable",
      "type": "function"
    },
    {
      "inputs": [],
      "name": "comp",
      "outputs": [
        {
          "internalType": "contract CompInterface",
          "name": "",
          "type": "address"
        }
      ],
      "stateMutability": "view",
      "type": "function"
    },
    {
      "inputs": [
        {
          "internalType": "uint256",
          "name": "proposalId",
          "type": "uint256"
        }
      ],
      "name": "execute",
      "outputs": [],
      "stateMutability": "payable",
      "type": "function"
    },
    {
      "inputs": [
        {
          "internalType": "uint256",
          "name": "proposalId",
          "type": "uint256"
        }
      ],
      "name": "getActions",
      "outputs": [
        {
          "internalType": "address[]",
          "name": "targets",
          "type": "address[]"
        },
        {
          "internalType": "uint256[]",
          "name": "values",
          "type": "uint256[]"
        },
        {
          "internalType": "string[]",
          "name": "signatures",
          "type": "string[]"
        },
        {
          "internalType": "bytes[]",
          "name": "calldatas",
          "type": "bytes[]"
        }
      ],
      "stateMutability": "view",
      "type": "function"
    },
    {
      "inputs": [
        {
          "internalType": "uint256",
          "name": "proposalId",
          "type": "uint256"
        },
        {
          "internalType": "address",
          "name": "voter",
          "type": "address"
        }
      ],
      "name": "getReceipt",
      "outputs": [
        {
          "components": [
            {
              "internalType": "bool",
              "name": "hasVoted",
              "type": "bool"
            },
            {
              "internalType": "uint8",
              "name": "support",
              "type": "uint8"
            },
            {
              "internalType": "uint96",
              "name": "votes",
              "type": "uint96"
            }
          ],
          "internalType": "struct GovernorBravoDelegateStorageV1.Receipt",
          "name": "",
          "type": "tuple"
        }
      ],
      "stateMutability": "view",
      "type": "function"
    },
    {
      "inputs": [],
      "name": "implementation",
      "outputs": [
        {
          "internalType": "address",
          "name": "",
          "type": "address"
        }
      ],
      "stateMutability": "view",
      "type": "function"
    },
    {
      "inputs": [],
      "name": "initialProposalId",
      "outputs": [
        {
          "internalType": "uint256",
          "name": "",
          "type": "uint256"
        }
      ],
      "stateMutability": "view",
      "type": "function"
    },
    {
      "inputs": [
        {
          "internalType": "address",
          "name": "timelock_",
          "type": "address"
        },
        {
          "internalType": "address",
          "name": "comp_",
          "type": "address"
        },
        {
          "internalType": "uint256",
          "name": "votingPeriod_",
          "type": "uint256"
        },
        {
          "internalType": "uint256",
          "name": "votingDelay_",
          "type": "uint256"
        },
        {
          "internalType": "uint256",
          "name": "proposalThreshold_",
          "type": "uint256"
        }
      ],
      "name": "initialize",
      "outputs": [],
      "stateMutability": "nonpayable",
      "type": "function"
    },
    {
      "inputs": [
        {
          "internalType": "address",
          "name": "account",
          "type": "address"
        }
      ],
      "name": "isWhitelisted",
      "outputs": [
        {
          "internalType": "bool",
          "name": "",
          "type": "bool"
        }
      ],
      "stateMutability": "view",
      "type": "function"
    },
    {
      "inputs": [
        {
          "internalType": "address",
          "name": "",
          "type": "address"
        }
      ],
      "name": "latestProposalIds",
      "outputs": [
        {
          "internalType": "uint256",
          "name": "",
          "type": "uint256"
        }
      ],
      "stateMutability": "view",
      "type": "function"
    },
    {
      "inputs": [],
      "name": "name",
      "outputs": [
        {
          "internalType": "string",
          "name": "",
          "type": "string"
        }
      ],
      "stateMutability": "view",
      "type": "function"
    },
    {
      "inputs": [],
      "name": "pendingAdmin",
      "outputs": [
        {
          "internalType": "address",
          "name": "",
          "type": "address"
        }
      ],
      "stateMutability": "view",
      "type": "function"
    },
    {
      "inputs": [],
      "name": "proposalCount",
      "outputs": [
        {
          "internalType": "uint256",
          "name": "",
          "type": "uint256"
        }
      ],
      "stateMutability": "view",
      "type": "function"
    },
    {
      "inputs": [],
      "name": "proposalMaxOperations",
      "outputs": [
        {
          "internalType": "uint256",
          "name": "",
          "type": "uint256"
        }
      ],
      "stateMutability": "view",
      "type": "function"
    },
    {
      "inputs": [],
      "name": "proposalThreshold",
      "outputs": [
        {
          "internalType": "uint256",
          "name": "",
          "type": "uint256"
        }
      ],
      "stateMutability": "view",
      "type": "function"
    },
    {
      "inputs": [
        {
          "internalType": "uint256",
          "name": "",
          "type": "uint256"
        }
      ],
      "name": "proposals",
      "outputs": [
        {
          "internalType": "uint256",
          "name": "id",
          "type": "uint256"
        },
        {
          "internalType": "address",
          "name": "proposer",
          "type": "address"
        },
        {
          "internalType": "uint256",
          "name": "eta",
          "type": "uint256"
        },
        {
          "internalType": "uint256",
          "name": "startBlock",
          "type": "uint256"
        },
        {
          "internalType": "uint256",
          "name": "endBlock",
          "type": "uint256"
        },
        {
          "internalType": "uint256",
          "name": "forVotes",
          "type": "uint256"
        },
        {
          "internalType": "uint256",
          "name": "againstVotes",
          "type": "uint256"
        },
        {
          "internalType": "uint256",
          "name": "abstainVotes",
          "type": "uint256"
        },
        {
          "internalType": "bool",
          "name": "canceled",
          "type": "bool"
        },
        {
          "internalType": "bool",
          "name": "executed",
          "type": "bool"
        }
      ],
      "stateMutability": "view",
      "type": "function"
    },
    {
      "inputs": [
        {
          "internalType": "address[]",
          "name": "targets",
          "type": "address[]"
        },
        {
          "internalType": "uint256[]",
          "name": "values",
          "type": "uint256[]"
        },
        {
          "internalType": "string[]",
          "name": "signatures",
          "type": "string[]"
        },
        {
          "internalType": "bytes[]",
          "name": "calldatas",
          "type": "bytes[]"
        },
        {
          "internalType": "string",
          "name": "description",
          "type": "string"
        }
      ],
      "name": "propose",
      "outputs": [
        {
          "internalType": "uint256",
          "name": "",
          "type": "uint256"
        }
      ],
      "stateMutability": "nonpayable",
      "type": "function"
    },
    {
      "inputs": [
        {
          "internalType": "uint256",
          "name": "proposalId",
          "type": "uint256"
        }
      ],
      "name": "queue",
      "outputs": [],
      "stateMutability": "nonpayable",
      "type": "function"
    },
    {
      "inputs": [],
      "name": "quorumVotes",
      "outputs": [
        {
          "internalType": "uint256",
          "name": "",
          "type": "uint256"
        }
      ],
      "stateMutability": "view",
      "type": "function"
    },
    {
      "inputs": [
        {
          "internalType": "uint256",
          "name": "proposalId",
          "type": "uint256"
        }
      ],
      "name": "state",
      "outputs": [
        {
          "internalType": "enum GovernorBravoDelegateStorageV1.ProposalState",
          "name": "",
          "type": "uint8"
        }
      ],
      "stateMutability": "view",
      "type": "function"
    },
    {
      "inputs": [],
      "name": "timelock",
      "outputs": [
        {
          "internalType": "contract TimelockInterface",
          "name": "",
          "type": "address"
        }
      ],
      "stateMutability": "view",
      "type": "function"
    },
    {
      "inputs": [],
      "name": "votingDelay",
      "outputs": [
        {
          "internalType": "uint256",
          "name": "",
          "type": "uint256"
        }
      ],
      "stateMutability": "view",
      "type": "function"
    },
    {
      "inputs": [],
      "name": "votingPeriod",
      "outputs": [
        {
          "internalType": "uint256",
          "name": "",
          "type": "uint256"
        }
      ],
      "stateMutability": "view",
      "type": "function"
    },
    {
      "inputs": [
        {
          "internalType": "address",
          "name": "",
          "type": "address"
        }
      ],
      "name": "whitelistAccountExpirations",
      "outputs": [
        {
          "internalType": "uint256",
          "name": "",
          "type": "uint256"
        }
      ],
      "stateMutability": "view",
      "type": "function"
    },
    {
      "inputs": [],
      "name": "whitelistGuardian",
      "outputs": [
        {
          "internalType": "address",
          "name": "",
          "type": "address"
        }
      ],
      "stateMutability": "view",
      "type": "function"
    }
  ],
  "bytecode": "0x608060405234801561001057600080fd5b5061415e806100206000396000f3fe6080604052600436106102725760003560e01c80635c60da1b1161014f578063d33219b4116100c1578063e48083fe1161007a578063e48083fe1461086a578063e9c714f21461087f578063f851a44014610894578063f9d28b80146108b4578063fc4eee42146108d4578063fe0d94c1146108ea57600080fd5b8063d33219b414610770578063da35c66414610790578063da95691a146107a6578063ddf0b009146107c6578063deaaa7cc146107e6578063e23a9a521461081a57600080fd5b8063a64e024a11610113578063a64e024a146106cd578063b1126263146106e4578063b58131b0146106fa578063b71d1a0c14610710578063c5a8425d14610730578063d13f90b41461075057600080fd5b80635c60da1b1461063b578063791f5d231461065b5780637b3c71d3146106785780637bdbe4d01461069857806399533365146106ad57600080fd5b806325fd935a116101e85780633af32abf116101ac5780633af32abf146105465780633bccf4fd1461058e5780633e4f49e6146105ae57806340e58ee5146105db5780634d6733d2146105fb578063567813881461061b57600080fd5b806325fd935a1461049557806326782247146104b3578063328dd982146104d357806338bd0dda146105035780633932abb11461053057600080fd5b806317977c611161023a57806317977c61146103c057806317ba1b8b146103ed5780631dfb1b5a1461040d57806320606b701461042d578063215809ca1461046157806324bc1a641461047757600080fd5b8063013cf08b1461027757806302a251a3146102f257806306fdde03146103165780630ea2d98c14610366578063109d0af814610388575b600080fd5b34801561028357600080fd5b5061029761029236600461360a565b6108fd565b604080519a8b526001600160a01b0390991660208b0152978901969096526060880194909452608087019290925260a086015260c085015260e084015215156101008301521515610120820152610140015b60405180910390f35b3480156102fe57600080fd5b5061030860045481565b6040519081526020016102e9565b34801561032257600080fd5b5061035960405180604001604052806017815260200176436f6d706f756e6420476f7665726e6f7220427261766f60481b81525081565b6040516102e9919061367f565b34801561037257600080fd5b5061038661038136600461360a565b61096e565b005b34801561039457600080fd5b506009546103a8906001600160a01b031681565b6040516001600160a01b0390911681526020016102e9565b3480156103cc57600080fd5b506103086103db3660046136ae565b600b6020526000908152604090205481565b3480156103f957600080fd5b5061038661040836600461360a565b610aa7565b34801561041957600080fd5b5061038661042836600461360a565b610bef565b34801561043957600080fd5b506103087f8cad95687ba82c2ce50e74f7b754645e5117c3a5bec8151c0726d5857980a86681565b34801561046d57600080fd5b5061030861168081565b34801561048357600080fd5b506103086954b40b1f852bda00000081565b3480156104a157600080fd5b5061030869152d02c7e14af680000081565b3480156104bf57600080fd5b506001546103a8906001600160a01b031681565b3480156104df57600080fd5b506104f36104ee36600461360a565b610d16565b6040516102e99493929190613792565b34801561050f57600080fd5b5061030861051e3660046136ae565b600c6020526000908152604090205481565b34801561053c57600080fd5b5061030860035481565b34801561055257600080fd5b5061057e6105613660046136ae565b6001600160a01b03166000908152600c6020526040902054421090565b60405190151581526020016102e9565b34801561059a57600080fd5b506103866105a93660046137fb565b610fb5565b3480156105ba57600080fd5b506105ce6105c936600461360a565b611232565b6040516102e9919061385f565b3480156105e757600080fd5b506103866105f636600461360a565b611402565b34801561060757600080fd5b50610386610616366004613887565b61186c565b34801561062757600080fd5b506103866106363660046138b1565b611952565b34801561064757600080fd5b506002546103a8906001600160a01b031681565b34801561066757600080fd5b50610308683635c9adc5dea0000081565b34801561068457600080fd5b506103866106933660046138dd565b6119bd565b3480156106a457600080fd5b50610308600a81565b3480156106b957600080fd5b506103866106c83660046136ae565b611a0d565b3480156106d957600080fd5b5061030862013b0081565b3480156106f057600080fd5b50610308619d8081565b34801561070657600080fd5b5061030860055481565b34801561071c57600080fd5b5061038661072b3660046136ae565b611ada565b34801561073c57600080fd5b50600d546103a8906001600160a01b031681565b34801561075c57600080fd5b5061038661076b366004613964565b611ba1565b34801561077c57600080fd5b506008546103a8906001600160a01b031681565b34801561079c57600080fd5b5061030860075481565b3480156107b257600080fd5b506103086107c1366004613c7f565b611ec0565b3480156107d257600080fd5b506103866107e136600461360a565b61257f565b3480156107f257600080fd5b506103087f150214d74d59b7d1e90c73fc22ef3d991dd0a76b046543d4d80ab92d2a50328f81565b34801561082657600080fd5b5061083a610835366004613d51565b6128aa565b6040805182511515815260208084015160ff1690820152918101516001600160601b0316908201526060016102e9565b34801561087657600080fd5b50610308600181565b34801561088b57600080fd5b50610386612940565b3480156108a057600080fd5b506000546103a8906001600160a01b031681565b3480156108c057600080fd5b506103866108cf3660046136ae565b612a6a565b3480156108e057600080fd5b5061030860065481565b6103866108f836600461360a565b612c06565b600a818154811061090d57600080fd5b60009182526020909120600e90910201805460018201546002830154600784015460088501546009860154600a870154600b880154600c909801549698506001600160a01b0390951696939592949193909260ff808216916101009004168a565b6000546001600160a01b031633146109e15760405162461bcd60e51b815260206004820152602b60248201527f476f7665726e6f72427261766f3a3a5f736574566f74696e67506572696f643a60448201526a2061646d696e206f6e6c7960a81b60648201526084015b60405180910390fd5b61168081101580156109f6575062013b008111155b610a615760405162461bcd60e51b815260206004820152603660248201527f476f7665726e6f72427261766f3a3a5f736574566f74696e67506572696f643a604482015275081a5b9d985b1a59081d9bdd1a5b99c81c195c9a5bd960521b60648201526084016109d8565b600480549082905560408051828152602081018490527f7e3f7f0708a84de9203036abaa450dccc85ad5ff52f78c170f3edb55cf5e882891015b60405180910390a15050565b6000546001600160a01b03163314610b1a5760405162461bcd60e51b815260206004820152603060248201527f476f7665726e6f72427261766f3a3a5f73657450726f706f73616c546872657360448201526f686f6c643a2061646d696e206f6e6c7960801b60648201526084016109d8565b683635c9adc5dea000008110158015610b3d575069152d02c7e14af68000008111155b610bb1576040805162461bcd60e51b81526020600482015260248101919091527f476f7665726e6f72427261766f3a3a5f73657450726f706f73616c546872657360448201527f686f6c643a20696e76616c69642070726f706f73616c207468726573686f6c6460648201526084016109d8565b600580549082905560408051828152602081018490527fccb45da8d5717e6c4544694297c4ba5cf151d455c9bb0ed4fc7a38411bc054619101610a9b565b6000546001600160a01b03163314610c5c5760405162461bcd60e51b815260206004820152602a60248201527f476f7665726e6f72427261766f3a3a5f736574566f74696e6744656c61793a2060448201526961646d696e206f6e6c7960b01b60648201526084016109d8565b60018110158015610c6f5750619d808111155b610cd85760405162461bcd60e51b815260206004820152603460248201527f476f7665726e6f72427261766f3a3a5f736574566f74696e6744656c61793a20604482015273696e76616c696420766f74696e672064656c617960601b60648201526084016109d8565b600380549082905560408051828152602081018490527fc565b045403dc03c2eea82b81a0465edad9e2e7fc4d97e11421c209da93d7a939101610a9b565b6060806060806000600a8681548110610d3157610d31613d74565b90600052602060002090600e020190508060030181600401826005018360060183805480602002602001604051908101604052809291908181526020018280548015610da657602002820191906000526020600020905b81546001600160a01b03168152600190910190602001808311610d88575b5050505050935082805480602002602001604051908101604052809291908181526020018280548015610df857602002820191906000526020600020905b815481526020019060010190808311610de4575b5050505050925081805480602002602001604051908101604052809291908181526020016000905b82821015610ecc578382906000526020600020018054610e3f90613d8a565b80601f0160208091040260200160405190810160405280929190818152602001828054610e6b90613d8a565b8015610eb85780601f10610e8d57610100808354040283529160200191610eb8565b820191906000526020600020905b815481529060010190602001808311610e9b57829003601f168201915b505050505081526020019060010190610e20565b50505050915080805480602002602001604051908101604052809291908181526020016000905b82821015610f9f578382906000526020600020018054610f1290613d8a565b80601f0160208091040260200160405190810160405280929190818152602001828054610f3e90613d8a565b8015610f8b5780601f10610f6057610100808354040283529160200191610f8b565b820191906000526020600020905b815481529060010190602001808311610f6e57829003601f168201915b505050505081526020019060010190610ef3565b5050505090509450945094509450509193509193565b6040805180820182526017815276436f6d706f756e6420476f7665726e6f7220427261766f60481b60209182015281517f8cad95687ba82c2ce50e74f7b754645e5117c3a5bec8151c0726d5857980a866818301527f3d9e905142ff365fb68ce863f26a44f5583cf7ec11bcde450555f50b7e1b561481840152466060820152306080808301919091528351808303909101815260a0820184528051908301207f150214d74d59b7d1e90c73fc22ef3d991dd0a76b046543d4d80ab92d2a50328f60c083015260e0820189905260ff8816610100808401919091528451808403909101815261012083019094528351939092019290922061190160f01b6101408401526101428301829052610162830181905290916000906101820160408051601f198184030181528282528051602091820120600080855291840180845281905260ff8a169284019290925260608301889052608083018790529092509060019060a0016020604051602081039080840390855afa15801561113c573d6000803e3d6000fd5b5050604051601f1901519150506001600160a01b0381166111b75760405162461bcd60e51b815260206004820152602f60248201527f476f7665726e6f72427261766f3a3a63617374566f746542795369673a20696e60448201526e76616c6964207369676e617475726560881b60648201526084016109d8565b806001600160a01b03167fb8e138887d0aa13bab447e82de9d5c1777041ecd21ca36ba824ff1e6c07ddda48a8a6111ef858e8e612e5b565b6040805193845260ff90921660208401526001600160601b03169082015260806060820181905260009082015260a00160405180910390a2505050505050505050565b60008160075410158015611247575060065482115b6112a55760405162461bcd60e51b815260206004820152602960248201527f476f7665726e6f72427261766f3a3a73746174653a20696e76616c69642070726044820152681bdc1bdcd85b081a5960ba1b60648201526084016109d8565b6000600a83815481106112ba576112ba613d74565b60009182526020909120600e90910201600c81015490915060ff16156112e35750600292915050565b806007015443116112f75750600092915050565b8060080154431161130b5750600192915050565b80600a0154816009015411158061132f57506954b40b1f852bda0000008160090154105b1561133d5750600392915050565b600281015461134f5750600492915050565b600c810154610100900460ff161561136a5750600792915050565b6002810154600854604080516360d143f160e11b815290516113e493926001600160a01b03169163c1a287e29160048083019260209291908290030181865afa1580156113bb573d6000803e3d6000fd5b505050506040513d601f19601f820116820180604052508101906113df9190613dbf565b613154565b42106113f35750600692915050565b50600592915050565b50919050565b600761140d82611232565b600781111561141e5761141e613849565b141561148b5760405162461bcd60e51b815260206004820152603660248201527f476f7665726e6f72427261766f3a3a63616e63656c3a2063616e6e6f742063616044820152751b98d95b08195e1958dd5d1959081c1c9bdc1bdcd85b60521b60648201526084016109d8565b6000600a82815481106114a0576114a0613d74565b60009182526020909120600e9091020160018101549091506001600160a01b031633146117105760018101546001600160a01b03166000908152600c6020526040902054421015611609576005546009546001838101546001600160a01b039283169263782d6fe1929116906115179043906131ae565b6040516001600160e01b031960e085901b1681526001600160a01b0390921660048301526024820152604401602060405180830381865afa158015611560573d6000803e3d6000fd5b505050506040513d601f19601f820116820180604052508101906115849190613dd8565b6001600160601b03161080156115a45750600d546001600160a01b031633145b6116045760405162461bcd60e51b815260206004820152602b60248201527f476f7665726e6f72427261766f3a3a63616e63656c3a2077686974656c69737460448201526a32b210383937b837b9b2b960a91b60648201526084016109d8565b611710565b6005546009546001838101546001600160a01b039283169263782d6fe1929116906116359043906131ae565b6040516001600160e01b031960e085901b1681526001600160a01b0390921660048301526024820152604401602060405180830381865afa15801561167e573d6000803e3d6000fd5b505050506040513d601f19601f820116820180604052508101906116a29190613dd8565b6001600160601b0316106117105760405162461bcd60e51b815260206004820152602f60248201527f476f7665726e6f72427261766f3a3a63616e63656c3a2070726f706f7365722060448201526e18589bdd99481d1a1c995cda1bdb19608a1b60648201526084016109d8565b600c8101805460ff1916600117905560005b600382015481101561183b576008546003830180546001600160a01b039092169163591fcdfe91908490811061175a5761175a613d74565b6000918252602090912001546004850180546001600160a01b03909216918590811061178857611788613d74565b90600052602060002001548560050185815481106117a8576117a8613d74565b906000526020600020018660060186815481106117c7576117c7613d74565b9060005260206000200187600201546040518663ffffffff1660e01b81526004016117f6959493929190613ea2565b600060405180830381600087803b15801561181057600080fd5b505af1158015611824573d6000803e3d6000fd5b50505050808061183390613f04565b915050611722565b506040518281527f789cf55be980739dad1d0699b93b58e806b51c9d96619bfa8fe0a28abaa7b30c90602001610a9b565b6000546001600160a01b031633148061188f5750600d546001600160a01b031633145b6119015760405162461bcd60e51b815260206004820152603960248201527f476f7665726e6f72427261766f3a3a5f73657457686974656c6973744163636f60448201527f756e7445787069726174696f6e3a2061646d696e206f6e6c790000000000000060648201526084016109d8565b6001600160a01b0382166000818152600c6020908152604091829020849055815192835282018390527f4e7b7545bc5744d0e30425959f4687475774b6c7edad77d24cb51c7d967d45159101610a9b565b337fb8e138887d0aa13bab447e82de9d5c1777041ecd21ca36ba824ff1e6c07ddda48383611981848383612e5b565b6040805193845260ff90921660208401526001600160601b03169082015260806060820181905260009082015260a00160405180910390a25050565b337fb8e138887d0aa13bab447e82de9d5c1777041ecd21ca36ba824ff1e6c07ddda485856119ec848383612e5b565b86866040516119ff959493929190613f1f565b60405180910390a250505050565b6000546001600160a01b03163314611a805760405162461bcd60e51b815260206004820152603060248201527f476f7665726e6f72427261766f3a3a5f73657457686974656c6973744775617260448201526f6469616e3a2061646d696e206f6e6c7960801b60648201526084016109d8565b600d80546001600160a01b038381166001600160a01b031983168117909355604080519190921680825260208201939093527f80a07e73e552148844a9c216d9724212d609cfa54e9c1a2e97203bdd2c4ad3419101610a9b565b6000546001600160a01b03163314611b475760405162461bcd60e51b815260206004820152602a60248201527f476f7665726e6f72427261766f3a5f73657450656e64696e6741646d696e3a2060448201526961646d696e206f6e6c7960b01b60648201526084016109d8565b600180546001600160a01b038381166001600160a01b031983168117909355604080519190921680825260208201939093527fca4f2f25d0898edd99413412fb94012f9e54ec8142f9b093e7720646a95b16a99101610a9b565b6008546001600160a01b031615611c165760405162461bcd60e51b815260206004820152603360248201527f476f7665726e6f72427261766f3a3a696e697469616c697a653a2063616e206f6044820152726e6c7920696e697469616c697a65206f6e636560681b60648201526084016109d8565b6000546001600160a01b03163314611c7e5760405162461bcd60e51b815260206004820152602560248201527f476f7665726e6f72427261766f3a3a696e697469616c697a653a2061646d696e604482015264206f6e6c7960d81b60648201526084016109d8565b6001600160a01b038516611cde5760405162461bcd60e51b8152602060048201526033602482015260008051602061410983398151915260448201527269642074696d656c6f636b206164647265737360681b60648201526084016109d8565b6001600160a01b038416611d3a5760405162461bcd60e51b815260206004820152602f602482015260008051602061410983398151915260448201526e696420636f6d70206164647265737360881b60648201526084016109d8565b6116808310158015611d4f575062013b008311155b611da25760405162461bcd60e51b8152602060048201526030602482015260008051602061410983398151915260448201526f1a59081d9bdd1a5b99c81c195c9a5bd960821b60648201526084016109d8565b60018210158015611db55750619d808211155b611e075760405162461bcd60e51b815260206004820152602f602482015260008051602061410983398151915260448201526e696420766f74696e672064656c617960881b60648201526084016109d8565b683635c9adc5dea000008110158015611e2a575069152d02c7e14af68000008111155b611e825760405162461bcd60e51b815260206004820152603560248201526000805160206141098339815191526044820152741a59081c1c9bdc1bdcd85b081d1a1c995cda1bdb19605a1b60648201526084016109d8565b600880546001600160a01b039687166001600160a01b0319918216179091556009805495909616941693909317909355600455600391909155600555565b600060065460001415611f2f5760405162461bcd60e51b815260206004820152603160248201527f476f7665726e6f72427261766f3a3a70726f706f73653a20476f7665726e6f7260448201527020427261766f206e6f742061637469766560781b60648201526084016109d8565b6005546009546001600160a01b031663782d6fe133611f4f4360016131ae565b6040516001600160e01b031960e085901b1681526001600160a01b0390921660048301526024820152604401602060405180830381865afa158015611f98573d6000803e3d6000fd5b505050506040513d601f19601f82011682018060405250810190611fbc9190613dd8565b6001600160601b03161180611fdf5750336000908152600c602052604090205442105b6120515760405162461bcd60e51b815260206004820152603f60248201527f476f7665726e6f72427261766f3a3a70726f706f73653a2070726f706f73657260448201527f20766f7465732062656c6f772070726f706f73616c207468726573686f6c640060648201526084016109d8565b84518651148015612063575083518651145b8015612070575082518651145b6120f05760405162461bcd60e51b8152602060048201526044602482018190527f476f7665726e6f72427261766f3a3a70726f706f73653a2070726f706f73616c908201527f2066756e6374696f6e20696e666f726d6174696f6e206172697479206d69736d6064820152630c2e8c6d60e31b608482015260a4016109d8565b85516121535760405162461bcd60e51b815260206004820152602c60248201527f476f7665726e6f72427261766f3a3a70726f706f73653a206d7573742070726f60448201526b7669646520616374696f6e7360a01b60648201526084016109d8565b600a865111156121b65760405162461bcd60e51b815260206004820152602860248201527f476f7665726e6f72427261766f3a3a70726f706f73653a20746f6f206d616e7960448201526720616374696f6e7360c01b60648201526084016109d8565b336000908152600b602052604090205480156123375760006121d782611232565b905060018160078111156121ed576121ed613849565b14156122875760405162461bcd60e51b815260206004820152605860248201527f476f7665726e6f72427261766f3a3a70726f706f73653a206f6e65206c69766560448201527f2070726f706f73616c207065722070726f706f7365722c20666f756e6420616e60648201527f20616c7265616479206163746976652070726f706f73616c0000000000000000608482015260a4016109d8565b600081600781111561229b5761229b613849565b14156123355760405162461bcd60e51b815260206004820152605960248201527f476f7665726e6f72427261766f3a3a70726f706f73653a206f6e65206c69766560448201527f2070726f706f73616c207065722070726f706f7365722c20666f756e6420616e60648201527f20616c72656164792070656e64696e672070726f706f73616c00000000000000608482015260a4016109d8565b505b600061234543600354613154565b9050600061235582600454613154565b60078054919250600061236783613f04565b9190505550600060075490506000600a828154811061238857612388613d74565b90600052602060002090600e0201905080600001546000146124005760405162461bcd60e51b815260206004820152602b60248201527f476f7665726e6f72427261766f3a3a70726f706f73653a2050726f706f73616c60448201526a24a21031b7b63639b4b7b760a91b60648201526084016109d8565b8181556001810180546001600160a01b03191633179055600060028201558a5161243390600383019060208e01906133b9565b50895161244990600483019060208d019061341e565b50885161245f90600583019060208c0190613459565b50875161247590600683019060208b01906134b2565b5083816007018190555082816008018190555060008160090181905550600081600a0181905550600081600b0181905550600081600c0160006101000a81548160ff021916908315150217905550600081600c0160016101000a81548160ff0219169083151502179055508060000154600b60008360010160009054906101000a90046001600160a01b03166001600160a01b03166001600160a01b03168152602001908152602001600020819055507f7d84a6263ae0d98d3329bd7b46bb4e8d6f98cd35a7adb45c274c8b7fd5ebd5e08160000154338d8d8d8d8a8a8f60405161256899989796959493929190613f6f565b60405180910390a1549a9950505050505050505050565b600461258a82611232565b600781111561259b5761259b613849565b1461261c5760405162461bcd60e51b8152602060048201526044602482018190527f476f7665726e6f72427261766f3a3a71756575653a2070726f706f73616c2063908201527f616e206f6e6c79206265207175657565642069662069742069732073756363656064820152631959195960e21b608482015260a4016109d8565b6000600a828154811061263157612631613d74565b90600052602060002090600e02019050600061269a42600860009054906101000a90046001600160a01b03166001600160a01b0316636a42b8f86040518163ffffffff1660e01b8152600401602060405180830381865afa1580156113bb573d6000803e3d6000fd5b905060005b6003830154811015612864576128528360030182815481106126c3576126c3613d74565b6000918252602090912001546004850180546001600160a01b0390921691849081106126f1576126f1613d74565b906000526020600020015485600501848154811061271157612711613d74565b90600052602060002001805461272690613d8a565b80601f016020809104026020016040519081016040528092919081815260200182805461275290613d8a565b801561279f5780601f106127745761010080835404028352916020019161279f565b820191906000526020600020905b81548152906001019060200180831161278257829003601f168201915b50505050508660060185815481106127b9576127b9613d74565b9060005260206000200180546127ce90613d8a565b80601f01602080910402602001604051908101604052809291908181526020018280546127fa90613d8a565b80156128475780601f1061281c57610100808354040283529160200191612847565b820191906000526020600020905b81548152906001019060200180831161282a57829003601f168201915b505050505086613202565b8061285c81613f04565b91505061269f565b506002820181905560408051848152602081018390527f9a2e42fd6722813d69113e7d0079d3d940171428df7373df9c7f7617cfda2892910160405180910390a1505050565b6040805160608101825260008082526020820181905291810191909152600a83815481106128da576128da613d74565b600091825260208083206001600160a01b03959095168352600e91909102909301600d0183526040908190208151606081018352905460ff8082161515835261010082041694820194909452620100009093046001600160601b03169083015250919050565b6001546001600160a01b03163314801561295957503315155b6129bc5760405162461bcd60e51b815260206004820152602e60248201527f476f7665726e6f72427261766f3a5f61636365707441646d696e3a2070656e6460448201526d696e672061646d696e206f6e6c7960901b60648201526084016109d8565b60008054600180546001600160a01b038082166001600160a01b031980861682179096559490911690915560408051919092168082526020820184905292917ff9ffabca9c8276e99321725bcb43fb076a6c66a54b7f21c4e8146d8519b417dc910160405180910390a1600154604080516001600160a01b03808516825290921660208301527fca4f2f25d0898edd99413412fb94012f9e54ec8142f9b093e7720646a95b16a99101610a9b565b6000546001600160a01b03163314612ad05760405162461bcd60e51b8152602060048201526024808201527f476f7665726e6f72427261766f3a3a5f696e6974696174653a2061646d696e206044820152636f6e6c7960e01b60648201526084016109d8565b60065415612b395760405162461bcd60e51b815260206004820152603060248201527f476f7665726e6f72427261766f3a3a5f696e6974696174653a2063616e206f6e60448201526f6c7920696e697469617465206f6e636560801b60648201526084016109d8565b806001600160a01b031663da35c6646040518163ffffffff1660e01b81526004016020604051808303816000875af1158015612b79573d6000803e3d6000fd5b505050506040513d601f19601f82011682018060405250810190612b9d9190613dbf565b600781905560065560085460408051630e18b68160e01b815290516001600160a01b0390921691630e18b6819160048082019260009290919082900301818387803b158015612beb57600080fd5b505af1158015612bff573d6000803e3d6000fd5b5050505050565b6005612c1182611232565b6007811115612c2257612c22613849565b14612ca35760405162461bcd60e51b815260206004820152604560248201527f476f7665726e6f72427261766f3a3a657865637574653a2070726f706f73616c60448201527f2063616e206f6e6c7920626520657865637574656420696620697420697320716064820152641d595d595960da1b608482015260a4016109d8565b6000600a8281548110612cb857612cb8613d74565b600091825260208220600c600e90920201908101805461ff00191661010017905591505b6003820154811015612e2a576008546004830180546001600160a01b0390921691630825f38f919084908110612d1457612d14613d74565b9060005260206000200154846003018481548110612d3457612d34613d74565b6000918252602090912001546004860180546001600160a01b039092169186908110612d6257612d62613d74565b9060005260206000200154866005018681548110612d8257612d82613d74565b90600052602060002001876006018781548110612da157612da1613d74565b9060005260206000200188600201546040518763ffffffff1660e01b8152600401612dd0959493929190613ea2565b60006040518083038185885af1158015612dee573d6000803e3d6000fd5b50505050506040513d6000823e601f3d908101601f19168201604052612e179190810190614007565b5080612e2281613f04565b915050612cdc565b506040518281527f712ae1383f79ac853f8d882153778e0260ef8f03b504e2866e0593e04d2b291f90602001610a9b565b60006001612e6884611232565b6007811115612e7957612e79613849565b14612ee05760405162461bcd60e51b815260206004820152603160248201527f476f7665726e6f72427261766f3a3a63617374566f7465496e7465726e616c3a604482015270081d9bdd1a5b99c81a5cc818db1bdcd959607a1b60648201526084016109d8565b60028260ff161115612f4f5760405162461bcd60e51b815260206004820152603260248201527f476f7665726e6f72427261766f3a3a63617374566f7465496e7465726e616c3a60448201527120696e76616c696420766f7465207479706560701b60648201526084016109d8565b6000600a8481548110612f6457612f64613d74565b600091825260208083206001600160a01b0389168452600d600e909302019182019052604090912080549192509060ff1615612fff5760405162461bcd60e51b815260206004820152603460248201527f476f7665726e6f72427261766f3a3a63617374566f7465496e7465726e616c3a604482015273081d9bdd195c88185b1c9958591e481d9bdd195960621b60648201526084016109d8565b600954600783015460405163782d6fe160e01b81526000926001600160a01b03169163782d6fe191613049918b916004016001600160a01b03929092168252602082015260400190565b602060405180830381865afa158015613066573d6000803e3d6000fd5b505050506040513d601f19601f8201168201806040525081019061308a9190613dd8565b905060ff85166130b5576130ab83600a0154826001600160601b0316613154565b600a84015561310b565b8460ff16600114156130e2576130d88360090154826001600160601b0316613154565b600984015561310b565b8460ff166002141561310b5761310583600b0154826001600160601b0316613154565b600b8401555b81546001600160601b03821662010000026dffffffffffffffffffffffff00001960ff88166101000261ffff199093169290921760011791909116179091559150509392505050565b600080613161838561407e565b9050838110156131a75760405162461bcd60e51b81526020600482015260116024820152706164646974696f6e206f766572666c6f7760781b60448201526064016109d8565b9392505050565b6000828211156131f85760405162461bcd60e51b81526020600482015260156024820152747375627472616374696f6e20756e646572666c6f7760581b60448201526064016109d8565b6131a78284614096565b6008546040516001600160a01b039091169063f2b065379061323090889088908890889088906020016140ad565b604051602081830303815290604052805190602001206040518263ffffffff1660e01b815260040161326491815260200190565b602060405180830381865afa158015613281573d6000803e3d6000fd5b505050506040513d601f19601f820116820180604052508101906132a591906140e6565b156133365760405162461bcd60e51b815260206004820152605560248201527f476f7665726e6f72427261766f3a3a71756575654f72526576657274496e746560448201527f726e616c3a206964656e746963616c2070726f706f73616c20616374696f6e20606482015274616c7265616479207175657565642061742065746160581b608482015260a4016109d8565b600854604051633a66f90160e01b81526001600160a01b0390911690633a66f9019061336e90889088908890889088906004016140ad565b6020604051808303816000875af115801561338d573d6000803e3d6000fd5b505050506040513d601f19601f820116820180604052508101906133b19190613dbf565b505050505050565b82805482825590600052602060002090810192821561340e579160200282015b8281111561340e57825182546001600160a01b0319166001600160a01b039091161782556020909201916001909101906133d9565b5061341a92915061350b565b5090565b82805482825590600052602060002090810192821561340e579160200282015b8281111561340e57825182559160200191906001019061343e565b8280548282559060005260206000209081019282156134a6579160200282015b828111156134a65782518051613496918491602090910190613520565b5091602001919060010190613479565b5061341a929150613593565b8280548282559060005260206000209081019282156134ff579160200282015b828111156134ff57825180516134ef918491602090910190613520565b50916020019190600101906134d2565b5061341a9291506135b0565b5b8082111561341a576000815560010161350c565b82805461352c90613d8a565b90600052602060002090601f01602090048101928261354e576000855561340e565b82601f1061356757805160ff191683800117855561340e565b8280016001018555821561340e579182018281111561340e57825182559160200191906001019061343e565b8082111561341a5760006135a782826135cd565b50600101613593565b8082111561341a5760006135c482826135cd565b506001016135b0565b5080546135d990613d8a565b6000825580601f106135e9575050565b601f016020900490600052602060002090810190613607919061350b565b50565b60006020828403121561361c57600080fd5b5035919050565b60005b8381101561363e578181015183820152602001613626565b8381111561364d576000848401525b50505050565b6000815180845261366b816020860160208601613623565b601f01601f19169290920160200192915050565b6020815260006131a76020830184613653565b80356001600160a01b03811681146136a957600080fd5b919050565b6000602082840312156136c057600080fd5b6131a782613692565b600081518084526020808501945080840160005b838110156137025781516001600160a01b0316875295820195908201906001016136dd565b509495945050505050565b600081518084526020808501945080840160005b8381101561370257815187529582019590820190600101613721565b600081518084526020808501808196508360051b8101915082860160005b85811015613785578284038952613773848351613653565b9885019893509084019060010161375b565b5091979650505050505050565b6080815260006137a560808301876136c9565b82810360208401526137b7818761370d565b905082810360408401526137cb818661373d565b905082810360608401526137df818561373d565b979650505050505050565b803560ff811681146136a957600080fd5b600080600080600060a0868803121561381357600080fd5b85359450613823602087016137ea565b9350613831604087016137ea565b94979396509394606081013594506080013592915050565b634e487b7160e01b600052602160045260246000fd5b602081016008831061388157634e487b7160e01b600052602160045260246000fd5b91905290565b6000806040838503121561389a57600080fd5b6138a383613692565b946020939093013593505050565b600080604083850312156138c457600080fd5b823591506138d4602084016137ea565b90509250929050565b600080600080606085870312156138f357600080fd5b84359350613903602086016137ea565b9250604085013567ffffffffffffffff8082111561392057600080fd5b818701915087601f83011261393457600080fd5b81358181111561394357600080fd5b88602082850101111561395557600080fd5b95989497505060200194505050565b600080600080600060a0868803121561397c57600080fd5b61398586613692565b945061399360208701613692565b94979496505050506040830135926060810135926080909101359150565b634e487b7160e01b600052604160045260246000fd5b604051601f8201601f1916810167ffffffffffffffff811182821017156139f0576139f06139b1565b604052919050565b600067ffffffffffffffff821115613a1257613a126139b1565b5060051b60200190565b600082601f830112613a2d57600080fd5b81356020613a42613a3d836139f8565b6139c7565b82815260059290921b84018101918181019086841115613a6157600080fd5b8286015b84811015613a8357613a7681613692565b8352918301918301613a65565b509695505050505050565b600082601f830112613a9f57600080fd5b81356020613aaf613a3d836139f8565b82815260059290921b84018101918181019086841115613ace57600080fd5b8286015b84811015613a835780358352918301918301613ad2565b600067ffffffffffffffff821115613b0357613b036139b1565b50601f01601f191660200190565b6000613b1f613a3d84613ae9565b9050828152838383011115613b3357600080fd5b828260208301376000602084830101529392505050565b600082601f830112613b5b57600080fd5b6131a783833560208501613b11565b600082601f830112613b7b57600080fd5b81356020613b8b613a3d836139f8565b82815260059290921b84018101918181019086841115613baa57600080fd5b8286015b84811015613a8357803567ffffffffffffffff811115613bce5760008081fd5b613bdc8986838b0101613b4a565b845250918301918301613bae565b600082601f830112613bfb57600080fd5b81356020613c0b613a3d836139f8565b82815260059290921b84018101918181019086841115613c2a57600080fd5b8286015b84811015613a8357803567ffffffffffffffff811115613c4e5760008081fd5b8701603f81018913613c605760008081fd5b613c71898683013560408401613b11565b845250918301918301613c2e565b600080600080600060a08688031215613c9757600080fd5b853567ffffffffffffffff80821115613caf57600080fd5b613cbb89838a01613a1c565b96506020880135915080821115613cd157600080fd5b613cdd89838a01613a8e565b95506040880135915080821115613cf357600080fd5b613cff89838a01613b6a565b94506060880135915080821115613d1557600080fd5b613d2189838a01613bea565b93506080880135915080821115613d3757600080fd5b50613d4488828901613b4a565b9150509295509295909350565b60008060408385031215613d6457600080fd5b823591506138d460208401613692565b634e487b7160e01b600052603260045260246000fd5b600181811c90821680613d9e57607f821691505b602082108114156113fc57634e487b7160e01b600052602260045260246000fd5b600060208284031215613dd157600080fd5b5051919050565b600060208284031215613dea57600080fd5b81516001600160601b03811681146131a757600080fd5b8054600090600181811c9080831680613e1b57607f831692505b6020808410821415613e3d57634e487b7160e01b600052602260045260246000fd5b838852818015613e545760018114613e6857613e96565b60ff19861689830152604089019650613e96565b876000528160002060005b86811015613e8e5781548b8201850152908501908301613e73565b8a0183019750505b50505050505092915050565b60018060a01b038616815284602082015260a060408201526000613ec960a0830186613e01565b8281036060840152613edb8186613e01565b9150508260808301529695505050505050565b634e487b7160e01b600052601160045260246000fd5b6000600019821415613f1857613f18613eee565b5060010190565b85815260ff851660208201526001600160601b038416604082015260806060820152816080820152818360a0830137600081830160a090810191909152601f909201601f19160101949350505050565b8981526001600160a01b038916602082015261012060408201819052600090613f9a8382018b6136c9565b90508281036060840152613fae818a61370d565b90508281036080840152613fc2818961373d565b905082810360a0840152613fd6818861373d565b90508560c08401528460e0840152828103610100840152613ff78185613653565b9c9b505050505050505050505050565b60006020828403121561401957600080fd5b815167ffffffffffffffff81111561403057600080fd5b8201601f8101841361404157600080fd5b805161404f613a3d82613ae9565b81815285602083850101111561406457600080fd5b614075826020830160208601613623565b95945050505050565b6000821982111561409157614091613eee565b500190565b6000828210156140a8576140a8613eee565b500390565b60018060a01b038616815284602082015260a0604082015260006140d460a0830186613653565b8281036060840152613edb8186613653565b6000602082840312156140f857600080fd5b815180151581146131a757600080fdfe476f7665726e6f72427261766f3a3a696e697469616c697a653a20696e76616ca2646970667358221220894e8fcb0d79e7a8a0e12f07b22cbc356e26dc7b1fa8e9297318543d05c2ed4264736f6c634300080a0033",
  "linkReferences": {},
  "deployedLinkReferences": {}
}