{
  "_format": "hh-sol-artifact-1",
  "contractName": "GovernorBravoDelegate",
  "sourceName": "contracts/Governance/GovernorBravoDelegateG1.sol",
  "abi": [
    {
      "anonymous": false,
      "inputs": [
        {
          "indexed": false,
          "internalType": "address",
          "name": "oldAdmin",
          "type": "address"
        },
        {
          "indexed": false,
          "internalType": "address",
          "name": "newAdmin",
          "type": "address"
        }
      ],
      "name": "NewAdmin",
      "type": "event"
    },
    {
      "anonymous": false,
      "inputs": [
        {
          "indexed": false,
          "internalType": "address",
          "name": "oldImplementation",
          "type": "address"
        },
        {
          "indexed": false,
          "internalType": "address",
          "name": "newImplementation",
          "type": "address"
        }
      ],
      "name": "NewImplementation",
      "type": "event"
    },
    {
      "anonymous": false,
      "inputs": [
        {
          "indexed": false,
          "internalType": "address",
          "name": "oldPendingAdmin",
          "type": "address"
        },
        {
          "indexed": false,
          "internalType": "address",
          "name": "newPendingAdmin",
          "type": "address"
        }
      ],
      "name": "NewPendingAdmin",
      "type": "event"
    },
    {
      "anonymous": false,
      "inputs": [
        {
          "indexed": false,
          "internalType": "uint256",
          "name": "id",
          "type": "uint256"
        }
      ],
      "name": "ProposalCanceled",
      "type": "event"
    },
    {
      "anonymous": false,
      "inputs": [
        {
          "indexed": false,
          "internalType": "uint256",
          "name": "id",
          "type": "uint256"
        },
        {
          "indexed": false,
          "internalType": "address",
          "name": "proposer",
          "type": "address"
        },
        {
          "indexed": false,
          "internalType": "address[]",
          "name": "targets",
          "type": "address[]"
        },
        {
          "indexed": false,
          "internalType": "uint256[]",
          "name": "values",
          "type": "uint256[]"
        },
        {
          "indexed": false,
          "internalType": "string[]",
          "name": "signatures",
          "type": "string[]"
        },
        {
          "indexed": false,
          "internalType": "bytes[]",
          "name": "calldatas",
          "type": "bytes[]"
        },
        {
          "indexed": false,
          "internalType": "uint256",
          "name": "startBlock",
          "type": "uint256"
        },
        {
          "indexed": false,
          "internalType": "uint256",
          "name": "endBlock",
          "type": "uint256"
        },
        {
          "indexed": false,
          "internalType": "string",
          "name": "description",
          "type": "string"
        }
      ],
      "name": "ProposalCreated",
      "type": "event"
    },
    {
      "anonymous": false,
      "inputs": [
        {
          "indexed": false,
          "internalType": "uint256",
          "name": "id",
          "type": "uint256"
        }
      ],
      "name": "ProposalExecuted",
      "type": "event"
    },
    {
      "anonymous": false,
      "inputs": [
        {
          "indexed": false,
          "internalType": "uint256",
          "name": "id",
          "type": "uint256"
        },
        {
          "indexed": false,
          "internalType": "uint256",
          "name": "eta",
          "type": "uint256"
        }
      ],
      "name": "ProposalQueued",
      "type": "event"
    },
    {
      "anonymous": false,
      "inputs": [
        {
          "indexed": false,
          "internalType": "uint256",
          "name": "oldProposalThreshold",
          "type": "uint256"
        },
        {
          "indexed": false,
          "internalType": "uint256",
          "name": "newProposalThreshold",
          "type": "uint256"
        }
      ],
      "name": "ProposalThresholdSet",
      "type": "event"
    },
    {
      "anonymous": false,
      "inputs": [
        {
          "indexed": true,
          "internalType": "address",
          "name": "voter",
          "type": "address"
        },
        {
          "indexed": false,
          "internalType": "uint256",
          "name": "proposalId",
          "type": "uint256"
        },
        {
          "indexed": false,
          "internalType": "uint8",
          "name": "support",
          "type": "uint8"
        },
        {
          "indexed": false,
          "internalType": "uint256",
          "name": "votes",
          "type": "uint256"
        },
        {
          "indexed": false,
          "internalType": "string",
          "name": "reason",
          "type": "string"
        }
      ],
      "name": "VoteCast",
      "type": "event"
    },
    {
      "anonymous": false,
      "inputs": [
        {
          "indexed": false,
          "internalType": "uint256",
          "name": "oldVotingDelay",
          "type": "uint256"
        },
        {
          "indexed": false,
          "internalType": "uint256",
          "name": "newVotingDelay",
          "type": "uint256"
        }
      ],
      "name": "VotingDelaySet",
      "type": "event"
    },
    {
      "anonymous": false,
      "inputs": [
        {
          "indexed": false,
          "internalType": "uint256",
          "name": "oldVotingPeriod",
          "type": "uint256"
        },
        {
          "indexed": false,
          "internalType": "uint256",
          "name": "newVotingPeriod",
          "type": "uint256"
        }
      ],
      "name": "VotingPeriodSet",
      "type": "event"
    },
    {
      "anonymous": false,
      "inputs": [
        {
          "indexed": false,
          "internalType": "address",
          "name": "account",
          "type": "address"
        },
        {
          "indexed": false,
          "internalType": "uint256",
          "name": "expiration",
          "type": "uint256"
        }
      ],
      "name": "WhitelistAccountExpirationSet",
      "type": "event"
    },
    {
      "anonymous": false,
      "inputs": [
        {
          "indexed": false,
          "internalType": "address",
          "name": "oldGuardian",
          "type": "address"
        },
        {
          "indexed": false,
          "internalType": "address",
          "name": "newGuardian",
          "type": "address"
        }
      ],
      "name": "WhitelistGuardianSet",
      "type": "event"
    },
    {
      "inputs": [],
      "name": "BALLOT_TYPEHASH",
      "outputs": [
        {
          "internalType": "bytes32",
          "name": "",
          "type": "bytes32"
        }
      ],
      "stateMutability": "view",
      "type": "function"
    },
    {
      "inputs": [],
      "name": "DOMAIN_TYPEHASH",
      "outputs": [
        {
          "internalType": "bytes32",
          "name": "",
          "type": "bytes32"
        }
      ],
      "stateMutability": "view",
      "type": "function"
    },
    {
      "inputs": [],
      "name": "MAX_PROPOSAL_THRESHOLD",
      "outputs": [
        {
          "internalType": "uint256",
          "name": "",
          "type": "uint256"
        }
      ],
      "stateMutability": "view",
      "type": "function"
    },
    {
      "inputs": [],
      "name": "MAX_VOTING_DELAY",
      "outputs": [
        {
          "internalType": "uint256",
          "name": "",
          "type": "uint256"
        }
      ],
      "stateMutability": "view",
      "type": "function"
    },
    {
      "inputs": [],
      "name": "MAX_VOTING_PERIOD",
      "outputs": [
        {
          "internalType": "uint256",
          "name": "",
          "type": "uint256"
        }
      ],
      "stateMutability": "view",
      "type": "function"
    },
    {
      "inputs": [],
      "name": "MIN_PROPOSAL_THRESHOLD",
      "outputs": [
        {
          "internalType": "uint256",
          "name": "",
          "type": "uint256"
        }
      ],
      "stateMutability": "view",
      "type": "function"
    },
    {
      "inputs": [],
      "name": "MIN_VOTING_DELAY",
      "outputs": [
        {
          "internalType": "uint256",
          "name": "",
          "type": "uint256"
        }
      ],
      "stateMutability": "view",
      "type": "function"
    },
    {
      "inputs": [],
      "name": "MIN_VOTING_PERIOD",
      "outputs": [
        {
          "internalType": "uint256",
          "name": "",
          "type": "uint256"
        }
      ],
      "stateMutability": "view",
      "type": "function"
    },
    {
      "inputs": [],
      "name": "_acceptAdmin",
      "outputs": [],
      "stateMutability": "nonpayable",
      "type": "function"
    },
    {
      "inputs": [
        {
          "internalType": "address",
          "name": "governorAlpha",
          "type": "address"
        }
      ],
      "name": "_initiate",
      "outputs": [],
      "stateMutability": "nonpayable",
      "type": "function"
    },
    {
      "inputs": [
        {
          "internalType": "address",
          "name": "newPendingAdmin",
          "type": "address"
        }
      ],
      "name": "_setPendingAdmin",
      "outputs": [],
      "stateMutability": "nonpayable",
      "type": "function"
    },
    {
      "inputs": [
        {
          "internalType": "uint256",
          "name": "newProposalThreshold",
          "type": "uint256"
        }
      ],
      "name": "_setProposalThreshold",
      "outputs": [],
      "stateMutability": "nonpayable",
      "type": "function"
    },
    {
      "inputs": [
        {
          "internalType": "uint256",
          "name": "newVotingDelay",
          "type": "uint256"
        }
      ],
      "name": "_setVotingDelay",
      "outputs": [],
      "stateMutability": "nonpayable",
      "type": "function"
    },
    {
      "inputs": [
        {
          "internalType": "uint256",
          "name": "newVotingPeriod",
          "type": "uint256"
        }
      ],
      "name": "_setVotingPeriod",
      "outputs": [],
      "stateMutability": "nonpayable",
      "type": "function"
    },
    {
      "inputs": [],
      "name": "admin",
      "outputs": [
        {
          "internalType": "address",
          "name": "",
          "type": "address"
        }
      ],
      "stateMutability": "view",
      "type": "function"
    },
    {
      "inputs": [
        {
          "internalType": "uint256",
          "name": "proposalId",
          "type": "uint256"
        }
      ],
      "name": "cancel",
      "outputs": [],
      "stateMutability": "nonpayable",
      "type": "function"
    },
    {
      "inputs": [
        {
          "internalType": "uint256",
          "name": "proposalId",
          "type": "uint256"
        },
        {
          "internalType": "uint8",
          "name": "support",
          "type": "uint8"
        }
      ],
      "name": "castVote",
      "outputs": [],
      "stateMutability": "nonpayable",
      "type": "function"
    },
    {
      "inputs": [
        {
          "internalType": "uint256",
          "name": "proposalId",
          "type": "uint256"
        },
        {
          "internalType": "uint8",
          "name": "support",
          "type": "uint8"
        },
        {
          "internalType": "uint8",
          "name": "v",
          "type": "uint8"
        },
        {
          "internalType": "bytes32",
          "name": "r",
          "type": "bytes32"
        },
        {
          "internalType": "bytes32",
          "name": "s",
          "type": "bytes32"
        }
      ],
      "name": "castVoteBySig",
      "outputs": [],
      "stateMutability": "nonpayable",
      "type": "function"
    },
    {
      "inputs": [
        {
          "internalType": "uint256",
          "name": "proposalId",
          "type": "uint256"
        },
        {
          "internalType": "uint8",
          "name": "support",
          "type": "uint8"
        },
        {
          "internalType": "string",
          "name": "reason",
          "type": "string"
        }
      ],
      "name": "castVoteWithReason",
      "outputs": [],
      "stateMutability": "nonpayable",
      "type": "function"
    },
    {
      "inputs": [],
      "name": "comp",
      "outputs": [
        {
          "internalType": "contract CompInterface",
          "name": "",
          "type": "address"
        }
      ],
      "stateMutability": "view",
      "type": "function"
    },
    {
      "inputs": [
        {
          "internalType": "uint256",
          "name": "proposalId",
          "type": "uint256"
        }
      ],
      "name": "execute",
      "outputs": [],
      "stateMutability": "payable",
      "type": "function"
    },
    {
      "inputs": [
        {
          "internalType": "uint256",
          "name": "proposalId",
          "type": "uint256"
        }
      ],
      "name": "getActions",
      "outputs": [
        {
          "internalType": "address[]",
          "name": "targets",
          "type": "address[]"
        },
        {
          "internalType": "uint256[]",
          "name": "values",
          "type": "uint256[]"
        },
        {
          "internalType": "string[]",
          "name": "signatures",
          "type": "string[]"
        },
        {
          "internalType": "bytes[]",
          "name": "calldatas",
          "type": "bytes[]"
        }
      ],
      "stateMutability": "view",
      "type": "function"
    },
    {
      "inputs": [
        {
          "internalType": "uint256",
          "name": "proposalId",
          "type": "uint256"
        },
        {
          "internalType": "address",
          "name": "voter",
          "type": "address"
        }
      ],
      "name": "getReceipt",
      "outputs": [
        {
          "components": [
            {
              "internalType": "bool",
              "name": "hasVoted",
              "type": "bool"
            },
            {
              "internalType": "uint8",
              "name": "support",
              "type": "uint8"
            },
            {
              "internalType": "uint96",
              "name": "votes",
              "type": "uint96"
            }
          ],
          "internalType": "struct GovernorBravoDelegateStorageV1.Receipt",
          "name": "",
          "type": "tuple"
        }
      ],
      "stateMutability": "view",
      "type": "function"
    },
    {
      "inputs": [],
      "name": "implementation",
      "outputs": [
        {
          "internalType": "address",
          "name": "",
          "type": "address"
        }
      ],
      "stateMutability": "view",
      "type": "function"
    },
    {
      "inputs": [],
      "name": "initialProposalId",
      "outputs": [
        {
          "internalType": "uint256",
          "name": "",
          "type": "uint256"
        }
      ],
      "stateMutability": "view",
      "type": "function"
    },
    {
      "inputs": [
        {
          "internalType": "address",
          "name": "timelock_",
          "type": "address"
        },
        {
          "internalType": "address",
          "name": "comp_",
          "type": "address"
        },
        {
          "internalType": "uint256",
          "name": "votingPeriod_",
          "type": "uint256"
        },
        {
          "internalType": "uint256",
          "name": "votingDelay_",
          "type": "uint256"
        },
        {
          "internalType": "uint256",
          "name": "proposalThreshold_",
          "type": "uint256"
        }
      ],
      "name": "initialize",
      "outputs": [],
      "stateMutability": "nonpayable",
      "type": "function"
    },
    {
      "inputs": [
        {
          "internalType": "address",
          "name": "",
          "type": "address"
        }
      ],
      "name": "latestProposalIds",
      "outputs": [
        {
          "internalType": "uint256",
          "name": "",
          "type": "uint256"
        }
      ],
      "stateMutability": "view",
      "type": "function"
    },
    {
      "inputs": [],
      "name": "name",
      "outputs": [
        {
          "internalType": "string",
          "name": "",
          "type": "string"
        }
      ],
      "stateMutability": "view",
      "type": "function"
    },
    {
      "inputs": [],
      "name": "pendingAdmin",
      "outputs": [
        {
          "internalType": "address",
          "name": "",
          "type": "address"
        }
      ],
      "stateMutability": "view",
      "type": "function"
    },
    {
      "inputs": [],
      "name": "proposalCount",
      "outputs": [
        {
          "internalType": "uint256",
          "name": "",
          "type": "uint256"
        }
      ],
      "stateMutability": "view",
      "type": "function"
    },
    {
      "inputs": [],
      "name": "proposalMaxOperations",
      "outputs": [
        {
          "internalType": "uint256",
          "name": "",
          "type": "uint256"
        }
      ],
      "stateMutability": "view",
      "type": "function"
    },
    {
      "inputs": [],
      "name": "proposalThreshold",
      "outputs": [
        {
          "internalType": "uint256",
          "name": "",
          "type": "uint256"
        }
      ],
      "stateMutability": "view",
      "type": "function"
    },
    {
      "inputs": [
        {
          "internalType": "uint256",
          "name": "",
          "type": "uint256"
        }
      ],
      "name": "proposals",
      "outputs": [
        {
          "internalType": "uint256",
          "name": "id",
          "type": "uint256"
        },
        {
          "internalType": "address",
          "name": "proposer",
          "type": "address"
        },
        {
          "internalType": "uint256",
          "name": "eta",
          "type": "uint256"
        },
        {
          "internalType": "uint256",
          "name": "startBlock",
          "type": "uint256"
        },
        {
          "internalType": "uint256",
          "name": "endBlock",
          "type": "uint256"
        },
        {
          "internalType": "uint256",
          "name": "forVotes",
          "type": "uint256"
        },
        {
          "internalType": "uint256",
          "name": "againstVotes",
          "type": "uint256"
        },
        {
          "internalType": "uint256",
          "name": "abstainVotes",
          "type": "uint256"
        },
        {
          "internalType": "bool",
          "name": "canceled",
          "type": "bool"
        },
        {
          "internalType": "bool",
          "name": "executed",
          "type": "bool"
        }
      ],
      "stateMutability": "view",
      "type": "function"
    },
    {
      "inputs": [
        {
          "internalType": "address[]",
          "name": "targets",
          "type": "address[]"
        },
        {
          "internalType": "uint256[]",
          "name": "values",
          "type": "uint256[]"
        },
        {
          "internalType": "string[]",
          "name": "signatures",
          "type": "string[]"
        },
        {
          "internalType": "bytes[]",
          "name": "calldatas",
          "type": "bytes[]"
        },
        {
          "internalType": "string",
          "name": "description",
          "type": "string"
        }
      ],
      "name": "propose",
      "outputs": [
        {
          "internalType": "uint256",
          "name": "",
          "type": "uint256"
        }
      ],
      "stateMutability": "nonpayable",
      "type": "function"
    },
    {
      "inputs": [
        {
          "internalType": "uint256",
          "name": "proposalId",
          "type": "uint256"
        }
      ],
      "name": "queue",
      "outputs": [],
      "stateMutability": "nonpayable",
      "type": "function"
    },
    {
      "inputs": [],
      "name": "quorumVotes",
      "outputs": [
        {
          "internalType": "uint256",
          "name": "",
          "type": "uint256"
        }
      ],
      "stateMutability": "view",
      "type": "function"
    },
    {
      "inputs": [
        {
          "internalType": "uint256",
          "name": "proposalId",
          "type": "uint256"
        }
      ],
      "name": "state",
      "outputs": [
        {
          "internalType": "enum GovernorBravoDelegateStorageV1.ProposalState",
          "name": "",
          "type": "uint8"
        }
      ],
      "stateMutability": "view",
      "type": "function"
    },
    {
      "inputs": [],
      "name": "timelock",
      "outputs": [
        {
          "internalType": "contract TimelockInterface",
          "name": "",
          "type": "address"
        }
      ],
      "stateMutability": "view",
      "type": "function"
    },
    {
      "inputs": [],
      "name": "votingDelay",
      "outputs": [
        {
          "internalType": "uint256",
          "name": "",
          "type": "uint256"
        }
      ],
      "stateMutability": "view",
      "type": "function"
    },
    {
      "inputs": [],
      "name": "votingPeriod",
      "outputs": [
        {
          "internalType": "uint256",
          "name": "",
          "type": "uint256"
        }
      ],
      "stateMutability": "view",
      "type": "function"
    }
  ],
  "bytecode": "0x608060405234801561001057600080fd5b50613d1c806100206000396000f3fe60806040526004361061023b5760003560e01c8063791f5d231161012e578063da95691a116100ab578063e9c714f21161006f578063e9c714f214610774578063f851a44014610789578063f9d28b80146107a9578063fc4eee42146107c9578063fe0d94c1146107df57600080fd5b8063da95691a1461069b578063ddf0b009146106bb578063deaaa7cc146106db578063e23a9a521461070f578063e48083fe1461075f57600080fd5b8063b58131b0116100f2578063b58131b01461060f578063b71d1a0c14610625578063d13f90b414610645578063d33219b414610665578063da35c6641461068557600080fd5b8063791f5d231461058f5780637b3c71d3146105ad5780637bdbe4d0146105cd578063a64e024a146105e2578063b1126263146105f957600080fd5b806324bc1a64116101bc5780633bccf4fd116101805780633bccf4fd146104e25780633e4f49e61461050257806340e58ee51461052f578063567813881461054f5780635c60da1b1461056f57600080fd5b806324bc1a641461044057806325fd935a1461045e578063267822471461047c578063328dd9821461049c5780633932abb1146104cc57600080fd5b806317977c611161020357806317977c611461038957806317ba1b8b146103b65780631dfb1b5a146103d657806320606b70146103f6578063215809ca1461042a57600080fd5b8063013cf08b1461024057806302a251a3146102bb57806306fdde03146102df5780630ea2d98c1461032f578063109d0af814610351575b600080fd5b34801561024c57600080fd5b5061026061025b3660046131f2565b6107f2565b604080519a8b526001600160a01b0390991660208b0152978901969096526060880194909452608087019290925260a086015260c085015260e084015215156101008301521515610120820152610140015b60405180910390f35b3480156102c757600080fd5b506102d160045481565b6040519081526020016102b2565b3480156102eb57600080fd5b5061032260405180604001604052806017815260200176436f6d706f756e6420476f7665726e6f7220427261766f60481b81525081565b6040516102b29190613267565b34801561033b57600080fd5b5061034f61034a3660046131f2565b610863565b005b34801561035d57600080fd5b50600954610371906001600160a01b031681565b6040516001600160a01b0390911681526020016102b2565b34801561039557600080fd5b506102d16103a4366004613296565b600b6020526000908152604090205481565b3480156103c257600080fd5b5061034f6103d13660046131f2565b61099c565b3480156103e257600080fd5b5061034f6103f13660046131f2565b610ae5565b34801561040257600080fd5b506102d17f8cad95687ba82c2ce50e74f7b754645e5117c3a5bec8151c0726d5857980a86681565b34801561043657600080fd5b506102d161168081565b34801561044c57600080fd5b506102d16954b40b1f852bda00000081565b34801561046a57600080fd5b506102d169152d02c7e14af680000081565b34801561048857600080fd5b50600154610371906001600160a01b031681565b3480156104a857600080fd5b506104bc6104b73660046131f2565b610c0c565b6040516102b2949392919061337a565b3480156104d857600080fd5b506102d160035481565b3480156104ee57600080fd5b5061034f6104fd3660046133e3565b610eab565b34801561050e57600080fd5b5061052261051d3660046131f2565b611128565b6040516102b29190613447565b34801561053b57600080fd5b5061034f61054a3660046131f2565b6112f8565b34801561055b57600080fd5b5061034f61056a36600461346f565b611623565b34801561057b57600080fd5b50600254610371906001600160a01b031681565b34801561059b57600080fd5b506102d1690a968163f0a57b40000081565b3480156105b957600080fd5b5061034f6105c836600461349b565b61168e565b3480156105d957600080fd5b506102d1600a81565b3480156105ee57600080fd5b506102d162013b0081565b34801561060557600080fd5b506102d1619d8081565b34801561061b57600080fd5b506102d160055481565b34801561063157600080fd5b5061034f610640366004613296565b6116de565b34801561065157600080fd5b5061034f610660366004613522565b6117a5565b34801561067157600080fd5b50600854610371906001600160a01b031681565b34801561069157600080fd5b506102d160075481565b3480156106a757600080fd5b506102d16106b636600461383d565b611ac5565b3480156106c757600080fd5b5061034f6106d63660046131f2565b612167565b3480156106e757600080fd5b506102d17f150214d74d59b7d1e90c73fc22ef3d991dd0a76b046543d4d80ab92d2a50328f81565b34801561071b57600080fd5b5061072f61072a36600461390f565b612492565b6040805182511515815260208084015160ff1690820152918101516001600160601b0316908201526060016102b2565b34801561076b57600080fd5b506102d1600181565b34801561078057600080fd5b5061034f612528565b34801561079557600080fd5b50600054610371906001600160a01b031681565b3480156107b557600080fd5b5061034f6107c4366004613296565b612652565b3480156107d557600080fd5b506102d160065481565b61034f6107ed3660046131f2565b6127ee565b600a818154811061080257600080fd5b60009182526020909120600e90910201805460018201546002830154600784015460088501546009860154600a870154600b880154600c909801549698506001600160a01b0390951696939592949193909260ff808216916101009004168a565b6000546001600160a01b031633146108d65760405162461bcd60e51b815260206004820152602b60248201527f476f7665726e6f72427261766f3a3a5f736574566f74696e67506572696f643a60448201526a2061646d696e206f6e6c7960a81b60648201526084015b60405180910390fd5b61168081101580156108eb575062013b008111155b6109565760405162461bcd60e51b815260206004820152603660248201527f476f7665726e6f72427261766f3a3a5f736574566f74696e67506572696f643a604482015275081a5b9d985b1a59081d9bdd1a5b99c81c195c9a5bd960521b60648201526084016108cd565b600480549082905560408051828152602081018490527f7e3f7f0708a84de9203036abaa450dccc85ad5ff52f78c170f3edb55cf5e882891015b60405180910390a15050565b6000546001600160a01b03163314610a0f5760405162461bcd60e51b815260206004820152603060248201527f476f7665726e6f72427261766f3a3a5f73657450726f706f73616c546872657360448201526f686f6c643a2061646d696e206f6e6c7960801b60648201526084016108cd565b690a968163f0a57b4000008110158015610a33575069152d02c7e14af68000008111155b610aa7576040805162461bcd60e51b81526020600482015260248101919091527f476f7665726e6f72427261766f3a3a5f73657450726f706f73616c546872657360448201527f686f6c643a20696e76616c69642070726f706f73616c207468726573686f6c6460648201526084016108cd565b600580549082905560408051828152602081018490527fccb45da8d5717e6c4544694297c4ba5cf151d455c9bb0ed4fc7a38411bc054619101610990565b6000546001600160a01b03163314610b525760405162461bcd60e51b815260206004820152602a60248201527f476f7665726e6f72427261766f3a3a5f736574566f74696e6744656c61793a2060448201526961646d696e206f6e6c7960b01b60648201526084016108cd565b60018110158015610b655750619d808111155b610bce5760405162461bcd60e51b815260206004820152603460248201527f476f7665726e6f72427261766f3a3a5f736574566f74696e6744656c61793a20604482015273696e76616c696420766f74696e672064656c617960601b60648201526084016108cd565b600380549082905560408051828152602081018490527fc565b045403dc03c2eea82b81a0465edad9e2e7fc4d97e11421c209da93d7a939101610990565b6060806060806000600a8681548110610c2757610c27613932565b90600052602060002090600e020190508060030181600401826005018360060183805480602002602001604051908101604052809291908181526020018280548015610c9c57602002820191906000526020600020905b81546001600160a01b03168152600190910190602001808311610c7e575b5050505050935082805480602002602001604051908101604052809291908181526020018280548015610cee57602002820191906000526020600020905b815481526020019060010190808311610cda575b5050505050925081805480602002602001604051908101604052809291908181526020016000905b82821015610dc2578382906000526020600020018054610d3590613948565b80601f0160208091040260200160405190810160405280929190818152602001828054610d6190613948565b8015610dae5780601f10610d8357610100808354040283529160200191610dae565b820191906000526020600020905b815481529060010190602001808311610d9157829003601f168201915b505050505081526020019060010190610d16565b50505050915080805480602002602001604051908101604052809291908181526020016000905b82821015610e95578382906000526020600020018054610e0890613948565b80601f0160208091040260200160405190810160405280929190818152602001828054610e3490613948565b8015610e815780601f10610e5657610100808354040283529160200191610e81565b820191906000526020600020905b815481529060010190602001808311610e6457829003601f168201915b505050505081526020019060010190610de9565b5050505090509450945094509450509193509193565b6040805180820182526017815276436f6d706f756e6420476f7665726e6f7220427261766f60481b60209182015281517f8cad95687ba82c2ce50e74f7b754645e5117c3a5bec8151c0726d5857980a866818301527f3d9e905142ff365fb68ce863f26a44f5583cf7ec11bcde450555f50b7e1b561481840152466060820152306080808301919091528351808303909101815260a0820184528051908301207f150214d74d59b7d1e90c73fc22ef3d991dd0a76b046543d4d80ab92d2a50328f60c083015260e0820189905260ff8816610100808401919091528451808403909101815261012083019094528351939092019290922061190160f01b6101408401526101428301829052610162830181905290916000906101820160408051601f198184030181528282528051602091820120600080855291840180845281905260ff8a169284019290925260608301889052608083018790529092509060019060a0016020604051602081039080840390855afa158015611032573d6000803e3d6000fd5b5050604051601f1901519150506001600160a01b0381166110ad5760405162461bcd60e51b815260206004820152602f60248201527f476f7665726e6f72427261766f3a3a63617374566f746542795369673a20696e60448201526e76616c6964207369676e617475726560881b60648201526084016108cd565b806001600160a01b03167fb8e138887d0aa13bab447e82de9d5c1777041ecd21ca36ba824ff1e6c07ddda48a8a6110e5858e8e612a43565b6040805193845260ff90921660208401526001600160601b03169082015260806060820181905260009082015260a00160405180910390a2505050505050505050565b6000816007541015801561113d575060065482115b61119b5760405162461bcd60e51b815260206004820152602960248201527f476f7665726e6f72427261766f3a3a73746174653a20696e76616c69642070726044820152681bdc1bdcd85b081a5960ba1b60648201526084016108cd565b6000600a83815481106111b0576111b0613932565b60009182526020909120600e90910201600c81015490915060ff16156111d95750600292915050565b806007015443116111ed5750600092915050565b806008015443116112015750600192915050565b80600a0154816009015411158061122557506954b40b1f852bda0000008160090154105b156112335750600392915050565b60028101546112455750600492915050565b600c810154610100900460ff16156112605750600792915050565b6002810154600854604080516360d143f160e11b815290516112da93926001600160a01b03169163c1a287e29160048083019260209291908290030181865afa1580156112b1573d6000803e3d6000fd5b505050506040513d601f19601f820116820180604052508101906112d5919061397d565b612d3c565b42106112e95750600692915050565b50600592915050565b50919050565b600761130382611128565b600781111561131457611314613431565b14156113815760405162461bcd60e51b815260206004820152603660248201527f476f7665726e6f72427261766f3a3a63616e63656c3a2063616e6e6f742063616044820152751b98d95b08195e1958dd5d1959081c1c9bdc1bdcd85b60521b60648201526084016108cd565b6000600a828154811061139657611396613932565b60009182526020909120600e9091020160018101549091506001600160a01b031633148061146357506005546009546001838101546001600160a01b039283169263782d6fe1929116906113eb904390612d96565b6040516001600160e01b031960e085901b1681526001600160a01b0390921660048301526024820152604401602060405180830381865afa158015611434573d6000803e3d6000fd5b505050506040513d601f19601f820116820180604052508101906114589190613996565b6001600160601b0316105b6114c75760405162461bcd60e51b815260206004820152602f60248201527f476f7665726e6f72427261766f3a3a63616e63656c3a2070726f706f7365722060448201526e18589bdd99481d1a1c995cda1bdb19608a1b60648201526084016108cd565b600c8101805460ff1916600117905560005b60038201548110156115f2576008546003830180546001600160a01b039092169163591fcdfe91908490811061151157611511613932565b6000918252602090912001546004850180546001600160a01b03909216918590811061153f5761153f613932565b906000526020600020015485600501858154811061155f5761155f613932565b9060005260206000200186600601868154811061157e5761157e613932565b9060005260206000200187600201546040518663ffffffff1660e01b81526004016115ad959493929190613a60565b600060405180830381600087803b1580156115c757600080fd5b505af11580156115db573d6000803e3d6000fd5b5050505080806115ea90613ac2565b9150506114d9565b506040518281527f789cf55be980739dad1d0699b93b58e806b51c9d96619bfa8fe0a28abaa7b30c90602001610990565b337fb8e138887d0aa13bab447e82de9d5c1777041ecd21ca36ba824ff1e6c07ddda48383611652848383612a43565b6040805193845260ff90921660208401526001600160601b03169082015260806060820181905260009082015260a00160405180910390a25050565b337fb8e138887d0aa13bab447e82de9d5c1777041ecd21ca36ba824ff1e6c07ddda485856116bd848383612a43565b86866040516116d0959493929190613add565b60405180910390a250505050565b6000546001600160a01b0316331461174b5760405162461bcd60e51b815260206004820152602a60248201527f476f7665726e6f72427261766f3a5f73657450656e64696e6741646d696e3a2060448201526961646d696e206f6e6c7960b01b60648201526084016108cd565b600180546001600160a01b038381166001600160a01b031983168117909355604080519190921680825260208201939093527fca4f2f25d0898edd99413412fb94012f9e54ec8142f9b093e7720646a95b16a99101610990565b6008546001600160a01b03161561181a5760405162461bcd60e51b815260206004820152603360248201527f476f7665726e6f72427261766f3a3a696e697469616c697a653a2063616e206f6044820152726e6c7920696e697469616c697a65206f6e636560681b60648201526084016108cd565b6000546001600160a01b031633146118825760405162461bcd60e51b815260206004820152602560248201527f476f7665726e6f72427261766f3a3a696e697469616c697a653a2061646d696e604482015264206f6e6c7960d81b60648201526084016108cd565b6001600160a01b0385166118e25760405162461bcd60e51b81526020600482015260336024820152600080516020613cc783398151915260448201527269642074696d656c6f636b206164647265737360681b60648201526084016108cd565b6001600160a01b03841661193e5760405162461bcd60e51b815260206004820152602f6024820152600080516020613cc783398151915260448201526e696420636f6d70206164647265737360881b60648201526084016108cd565b6116808310158015611953575062013b008311155b6119a65760405162461bcd60e51b81526020600482015260306024820152600080516020613cc783398151915260448201526f1a59081d9bdd1a5b99c81c195c9a5bd960821b60648201526084016108cd565b600182101580156119b95750619d808211155b611a0b5760405162461bcd60e51b815260206004820152602f6024820152600080516020613cc783398151915260448201526e696420766f74696e672064656c617960881b60648201526084016108cd565b690a968163f0a57b4000008110158015611a2f575069152d02c7e14af68000008111155b611a875760405162461bcd60e51b81526020600482015260356024820152600080516020613cc78339815191526044820152741a59081c1c9bdc1bdcd85b081d1a1c995cda1bdb19605a1b60648201526084016108cd565b600880546001600160a01b039687166001600160a01b0319918216179091556009805495909616941693909317909355600455600391909155600555565b600060065460001415611b345760405162461bcd60e51b815260206004820152603160248201527f476f7665726e6f72427261766f3a3a70726f706f73653a20476f7665726e6f7260448201527020427261766f206e6f742061637469766560781b60648201526084016108cd565b6005546009546001600160a01b031663782d6fe133611b54436001612d96565b6040516001600160e01b031960e085901b1681526001600160a01b0390921660048301526024820152604401602060405180830381865afa158015611b9d573d6000803e3d6000fd5b505050506040513d601f19601f82011682018060405250810190611bc19190613996565b6001600160601b031611611c3d5760405162461bcd60e51b815260206004820152603f60248201527f476f7665726e6f72427261766f3a3a70726f706f73653a2070726f706f73657260448201527f20766f7465732062656c6f772070726f706f73616c207468726573686f6c640060648201526084016108cd565b84518651148015611c4f575083518651145b8015611c5c575082518651145b611cdc5760405162461bcd60e51b8152602060048201526044602482018190527f476f7665726e6f72427261766f3a3a70726f706f73653a2070726f706f73616c908201527f2066756e6374696f6e20696e666f726d6174696f6e206172697479206d69736d6064820152630c2e8c6d60e31b608482015260a4016108cd565b8551611d3f5760405162461bcd60e51b815260206004820152602c60248201527f476f7665726e6f72427261766f3a3a70726f706f73653a206d7573742070726f60448201526b7669646520616374696f6e7360a01b60648201526084016108cd565b600a86511115611da25760405162461bcd60e51b815260206004820152602860248201527f476f7665726e6f72427261766f3a3a70726f706f73653a20746f6f206d616e7960448201526720616374696f6e7360c01b60648201526084016108cd565b336000908152600b60205260409020548015611f23576000611dc382611128565b90506001816007811115611dd957611dd9613431565b1415611e735760405162461bcd60e51b815260206004820152605860248201527f476f7665726e6f72427261766f3a3a70726f706f73653a206f6e65206c69766560448201527f2070726f706f73616c207065722070726f706f7365722c20666f756e6420616e60648201527f20616c7265616479206163746976652070726f706f73616c0000000000000000608482015260a4016108cd565b6000816007811115611e8757611e87613431565b1415611f215760405162461bcd60e51b815260206004820152605960248201527f476f7665726e6f72427261766f3a3a70726f706f73653a206f6e65206c69766560448201527f2070726f706f73616c207065722070726f706f7365722c20666f756e6420616e60648201527f20616c72656164792070656e64696e672070726f706f73616c00000000000000608482015260a4016108cd565b505b6000611f3143600354612d3c565b90506000611f4182600454612d3c565b600780549192506000611f5383613ac2565b91905055506000600a60075481548110611f6f57611f6f613932565b90600052602060002090600e020190508060000154600014611fe75760405162461bcd60e51b815260206004820152602b60248201527f476f7665726e6f72427261766f3a3a70726f706f73653a2050726f706f73616c60448201526a24a21031b7b63639b4b7b760a91b60648201526084016108cd565b60075481556001810180546001600160a01b0319163317905560006002820155895161201c90600383019060208d0190612fa1565b50885161203290600483019060208c0190613006565b50875161204890600583019060208b0190613041565b50865161205e90600683019060208a019061309a565b5082816007018190555081816008018190555060008160090181905550600081600a0181905550600081600b0181905550600081600c0160006101000a81548160ff021916908315150217905550600081600c0160016101000a81548160ff0219169083151502179055508060000154600b60008360010160009054906101000a90046001600160a01b03166001600160a01b03166001600160a01b03168152602001908152602001600020819055507f7d84a6263ae0d98d3329bd7b46bb4e8d6f98cd35a7adb45c274c8b7fd5ebd5e08160000154338c8c8c8c89898e60405161215199989796959493929190613b2d565b60405180910390a1549998505050505050505050565b600461217282611128565b600781111561218357612183613431565b146122045760405162461bcd60e51b8152602060048201526044602482018190527f476f7665726e6f72427261766f3a3a71756575653a2070726f706f73616c2063908201527f616e206f6e6c79206265207175657565642069662069742069732073756363656064820152631959195960e21b608482015260a4016108cd565b6000600a828154811061221957612219613932565b90600052602060002090600e02019050600061228242600860009054906101000a90046001600160a01b03166001600160a01b0316636a42b8f86040518163ffffffff1660e01b8152600401602060405180830381865afa1580156112b1573d6000803e3d6000fd5b905060005b600383015481101561244c5761243a8360030182815481106122ab576122ab613932565b6000918252602090912001546004850180546001600160a01b0390921691849081106122d9576122d9613932565b90600052602060002001548560050184815481106122f9576122f9613932565b90600052602060002001805461230e90613948565b80601f016020809104026020016040519081016040528092919081815260200182805461233a90613948565b80156123875780601f1061235c57610100808354040283529160200191612387565b820191906000526020600020905b81548152906001019060200180831161236a57829003601f168201915b50505050508660060185815481106123a1576123a1613932565b9060005260206000200180546123b690613948565b80601f01602080910402602001604051908101604052809291908181526020018280546123e290613948565b801561242f5780601f106124045761010080835404028352916020019161242f565b820191906000526020600020905b81548152906001019060200180831161241257829003601f168201915b505050505086612dea565b8061244481613ac2565b915050612287565b506002820181905560408051848152602081018390527f9a2e42fd6722813d69113e7d0079d3d940171428df7373df9c7f7617cfda2892910160405180910390a1505050565b6040805160608101825260008082526020820181905291810191909152600a83815481106124c2576124c2613932565b600091825260208083206001600160a01b03959095168352600e91909102909301600d0183526040908190208151606081018352905460ff8082161515835261010082041694820194909452620100009093046001600160601b03169083015250919050565b6001546001600160a01b03163314801561254157503315155b6125a45760405162461bcd60e51b815260206004820152602e60248201527f476f7665726e6f72427261766f3a5f61636365707441646d696e3a2070656e6460448201526d696e672061646d696e206f6e6c7960901b60648201526084016108cd565b60008054600180546001600160a01b038082166001600160a01b031980861682179096559490911690915560408051919092168082526020820184905292917ff9ffabca9c8276e99321725bcb43fb076a6c66a54b7f21c4e8146d8519b417dc910160405180910390a1600154604080516001600160a01b03808516825290921660208301527fca4f2f25d0898edd99413412fb94012f9e54ec8142f9b093e7720646a95b16a99101610990565b6000546001600160a01b031633146126b85760405162461bcd60e51b8152602060048201526024808201527f476f7665726e6f72427261766f3a3a5f696e6974696174653a2061646d696e206044820152636f6e6c7960e01b60648201526084016108cd565b600654156127215760405162461bcd60e51b815260206004820152603060248201527f476f7665726e6f72427261766f3a3a5f696e6974696174653a2063616e206f6e60448201526f6c7920696e697469617465206f6e636560801b60648201526084016108cd565b806001600160a01b031663da35c6646040518163ffffffff1660e01b81526004016020604051808303816000875af1158015612761573d6000803e3d6000fd5b505050506040513d601f19601f82011682018060405250810190612785919061397d565b600781905560065560085460408051630e18b68160e01b815290516001600160a01b0390921691630e18b6819160048082019260009290919082900301818387803b1580156127d357600080fd5b505af11580156127e7573d6000803e3d6000fd5b5050505050565b60056127f982611128565b600781111561280a5761280a613431565b1461288b5760405162461bcd60e51b815260206004820152604560248201527f476f7665726e6f72427261766f3a3a657865637574653a2070726f706f73616c60448201527f2063616e206f6e6c7920626520657865637574656420696620697420697320716064820152641d595d595960da1b608482015260a4016108cd565b6000600a82815481106128a0576128a0613932565b600091825260208220600c600e90920201908101805461ff00191661010017905591505b6003820154811015612a12576008546004830180546001600160a01b0390921691630825f38f9190849081106128fc576128fc613932565b906000526020600020015484600301848154811061291c5761291c613932565b6000918252602090912001546004860180546001600160a01b03909216918690811061294a5761294a613932565b906000526020600020015486600501868154811061296a5761296a613932565b9060005260206000200187600601878154811061298957612989613932565b9060005260206000200188600201546040518763ffffffff1660e01b81526004016129b8959493929190613a60565b60006040518083038185885af11580156129d6573d6000803e3d6000fd5b50505050506040513d6000823e601f3d908101601f191682016040526129ff9190810190613bc5565b5080612a0a81613ac2565b9150506128c4565b506040518281527f712ae1383f79ac853f8d882153778e0260ef8f03b504e2866e0593e04d2b291f90602001610990565b60006001612a5084611128565b6007811115612a6157612a61613431565b14612ac85760405162461bcd60e51b815260206004820152603160248201527f476f7665726e6f72427261766f3a3a63617374566f7465496e7465726e616c3a604482015270081d9bdd1a5b99c81a5cc818db1bdcd959607a1b60648201526084016108cd565b60028260ff161115612b375760405162461bcd60e51b815260206004820152603260248201527f476f7665726e6f72427261766f3a3a63617374566f7465496e7465726e616c3a60448201527120696e76616c696420766f7465207479706560701b60648201526084016108cd565b6000600a8481548110612b4c57612b4c613932565b600091825260208083206001600160a01b0389168452600d600e909302019182019052604090912080549192509060ff1615612be75760405162461bcd60e51b815260206004820152603460248201527f476f7665726e6f72427261766f3a3a63617374566f7465496e7465726e616c3a604482015273081d9bdd195c88185b1c9958591e481d9bdd195960621b60648201526084016108cd565b600954600783015460405163782d6fe160e01b81526000926001600160a01b03169163782d6fe191612c31918b916004016001600160a01b03929092168252602082015260400190565b602060405180830381865afa158015612c4e573d6000803e3d6000fd5b505050506040513d601f19601f82011682018060405250810190612c729190613996565b905060ff8516612c9d57612c9383600a0154826001600160601b0316612d3c565b600a840155612cf3565b8460ff1660011415612cca57612cc08360090154826001600160601b0316612d3c565b6009840155612cf3565b8460ff1660021415612cf357612ced83600b0154826001600160601b0316612d3c565b600b8401555b81546001600160601b03821662010000026dffffffffffffffffffffffff00001960ff88166101000261ffff199093169290921760011791909116179091559150509392505050565b600080612d498385613c3c565b905083811015612d8f5760405162461bcd60e51b81526020600482015260116024820152706164646974696f6e206f766572666c6f7760781b60448201526064016108cd565b9392505050565b600082821115612de05760405162461bcd60e51b81526020600482015260156024820152747375627472616374696f6e20756e646572666c6f7760581b60448201526064016108cd565b612d8f8284613c54565b6008546040516001600160a01b039091169063f2b0653790612e189088908890889088908890602001613c6b565b604051602081830303815290604052805190602001206040518263ffffffff1660e01b8152600401612e4c91815260200190565b602060405180830381865afa158015612e69573d6000803e3d6000fd5b505050506040513d601f19601f82011682018060405250810190612e8d9190613ca4565b15612f1e5760405162461bcd60e51b815260206004820152605560248201527f476f7665726e6f72427261766f3a3a71756575654f72526576657274496e746560448201527f726e616c3a206964656e746963616c2070726f706f73616c20616374696f6e20606482015274616c7265616479207175657565642061742065746160581b608482015260a4016108cd565b600854604051633a66f90160e01b81526001600160a01b0390911690633a66f90190612f569088908890889088908890600401613c6b565b6020604051808303816000875af1158015612f75573d6000803e3d6000fd5b505050506040513d601f19601f82011682018060405250810190612f99919061397d565b505050505050565b828054828255906000526020600020908101928215612ff6579160200282015b82811115612ff657825182546001600160a01b0319166001600160a01b03909116178255602090920191600190910190612fc1565b506130029291506130f3565b5090565b828054828255906000526020600020908101928215612ff6579160200282015b82811115612ff6578251825591602001919060010190613026565b82805482825590600052602060002090810192821561308e579160200282015b8281111561308e578251805161307e918491602090910190613108565b5091602001919060010190613061565b5061300292915061317b565b8280548282559060005260206000209081019282156130e7579160200282015b828111156130e757825180516130d7918491602090910190613108565b50916020019190600101906130ba565b50613002929150613198565b5b8082111561300257600081556001016130f4565b82805461311490613948565b90600052602060002090601f0160209004810192826131365760008555612ff6565b82601f1061314f57805160ff1916838001178555612ff6565b82800160010185558215612ff65791820182811115612ff6578251825591602001919060010190613026565b8082111561300257600061318f82826131b5565b5060010161317b565b808211156130025760006131ac82826131b5565b50600101613198565b5080546131c190613948565b6000825580601f106131d1575050565b601f0160209004906000526020600020908101906131ef91906130f3565b50565b60006020828403121561320457600080fd5b5035919050565b60005b8381101561322657818101518382015260200161320e565b83811115613235576000848401525b50505050565b6000815180845261325381602086016020860161320b565b601f01601f19169290920160200192915050565b602081526000612d8f602083018461323b565b80356001600160a01b038116811461329157600080fd5b919050565b6000602082840312156132a857600080fd5b612d8f8261327a565b600081518084526020808501945080840160005b838110156132ea5781516001600160a01b0316875295820195908201906001016132c5565b509495945050505050565b600081518084526020808501945080840160005b838110156132ea57815187529582019590820190600101613309565b600081518084526020808501808196508360051b8101915082860160005b8581101561336d57828403895261335b84835161323b565b98850198935090840190600101613343565b5091979650505050505050565b60808152600061338d60808301876132b1565b828103602084015261339f81876132f5565b905082810360408401526133b38186613325565b905082810360608401526133c78185613325565b979650505050505050565b803560ff8116811461329157600080fd5b600080600080600060a086880312156133fb57600080fd5b8535945061340b602087016133d2565b9350613419604087016133d2565b94979396509394606081013594506080013592915050565b634e487b7160e01b600052602160045260246000fd5b602081016008831061346957634e487b7160e01b600052602160045260246000fd5b91905290565b6000806040838503121561348257600080fd5b82359150613492602084016133d2565b90509250929050565b600080600080606085870312156134b157600080fd5b843593506134c1602086016133d2565b9250604085013567ffffffffffffffff808211156134de57600080fd5b818701915087601f8301126134f257600080fd5b81358181111561350157600080fd5b88602082850101111561351357600080fd5b95989497505060200194505050565b600080600080600060a0868803121561353a57600080fd5b6135438661327a565b94506135516020870161327a565b94979496505050506040830135926060810135926080909101359150565b634e487b7160e01b600052604160045260246000fd5b604051601f8201601f1916810167ffffffffffffffff811182821017156135ae576135ae61356f565b604052919050565b600067ffffffffffffffff8211156135d0576135d061356f565b5060051b60200190565b600082601f8301126135eb57600080fd5b813560206136006135fb836135b6565b613585565b82815260059290921b8401810191818101908684111561361f57600080fd5b8286015b84811015613641576136348161327a565b8352918301918301613623565b509695505050505050565b600082601f83011261365d57600080fd5b8135602061366d6135fb836135b6565b82815260059290921b8401810191818101908684111561368c57600080fd5b8286015b848110156136415780358352918301918301613690565b600067ffffffffffffffff8211156136c1576136c161356f565b50601f01601f191660200190565b60006136dd6135fb846136a7565b90508281528383830111156136f157600080fd5b828260208301376000602084830101529392505050565b600082601f83011261371957600080fd5b612d8f838335602085016136cf565b600082601f83011261373957600080fd5b813560206137496135fb836135b6565b82815260059290921b8401810191818101908684111561376857600080fd5b8286015b8481101561364157803567ffffffffffffffff81111561378c5760008081fd5b61379a8986838b0101613708565b84525091830191830161376c565b600082601f8301126137b957600080fd5b813560206137c96135fb836135b6565b82815260059290921b840181019181810190868411156137e857600080fd5b8286015b8481101561364157803567ffffffffffffffff81111561380c5760008081fd5b8701603f8101891361381e5760008081fd5b61382f8986830135604084016136cf565b8452509183019183016137ec565b600080600080600060a0868803121561385557600080fd5b853567ffffffffffffffff8082111561386d57600080fd5b61387989838a016135da565b9650602088013591508082111561388f57600080fd5b61389b89838a0161364c565b955060408801359150808211156138b157600080fd5b6138bd89838a01613728565b945060608801359150808211156138d357600080fd5b6138df89838a016137a8565b935060808801359150808211156138f557600080fd5b5061390288828901613708565b9150509295509295909350565b6000806040838503121561392257600080fd5b823591506134926020840161327a565b634e487b7160e01b600052603260045260246000fd5b600181811c9082168061395c57607f821691505b602082108114156112f257634e487b7160e01b600052602260045260246000fd5b60006020828403121561398f57600080fd5b5051919050565b6000602082840312156139a857600080fd5b81516001600160601b0381168114612d8f57600080fd5b8054600090600181811c90808316806139d957607f831692505b60208084108214156139fb57634e487b7160e01b600052602260045260246000fd5b838852818015613a125760018114613a2657613a54565b60ff19861689830152604089019650613a54565b876000528160002060005b86811015613a4c5781548b8201850152908501908301613a31565b8a0183019750505b50505050505092915050565b60018060a01b038616815284602082015260a060408201526000613a8760a08301866139bf565b8281036060840152613a9981866139bf565b9150508260808301529695505050505050565b634e487b7160e01b600052601160045260246000fd5b6000600019821415613ad657613ad6613aac565b5060010190565b85815260ff851660208201526001600160601b038416604082015260806060820152816080820152818360a0830137600081830160a090810191909152601f909201601f19160101949350505050565b8981526001600160a01b038916602082015261012060408201819052600090613b588382018b6132b1565b90508281036060840152613b6c818a6132f5565b90508281036080840152613b808189613325565b905082810360a0840152613b948188613325565b90508560c08401528460e0840152828103610100840152613bb5818561323b565b9c9b505050505050505050505050565b600060208284031215613bd757600080fd5b815167ffffffffffffffff811115613bee57600080fd5b8201601f81018413613bff57600080fd5b8051613c0d6135fb826136a7565b818152856020838501011115613c2257600080fd5b613c3382602083016020860161320b565b95945050505050565b60008219821115613c4f57613c4f613aac565b500190565b600082821015613c6657613c66613aac565b500390565b60018060a01b038616815284602082015260a060408201526000613c9260a083018661323b565b8281036060840152613a99818661323b565b600060208284031215613cb657600080fd5b81518015158114612d8f57600080fdfe476f7665726e6f72427261766f3a3a696e697469616c697a653a20696e76616ca26469706673582212202a9d0e1bbafd26b298a68909464de11b303df43fed1f716b3472b6a781d4c65664736f6c634300080a0033",
  "linkReferences": {},
  "deployedLinkReferences": {}
}