{
  "_format": "hh-sol-artifact-1",
  "contractName": "TimelockHarness",
  "sourceName": "contracts/tests/TimelockHarness.sol",
  "abi": [
    {
      "inputs": [
        {
          "internalType": "address",
          "name": "admin_",
          "type": "address"
        },
        {
          "internalType": "uint256",
          "name": "delay_",
          "type": "uint256"
        }
      ],
      "stateMutability": "nonpayable",
      "type": "constructor"
    },
    {
      "anonymous": false,
      "inputs": [
        {
          "indexed": true,
          "internalType": "bytes32",
          "name": "txHash",
          "type": "bytes32"
        },
        {
          "indexed": true,
          "internalType": "address",
          "name": "target",
          "type": "address"
        },
        {
          "indexed": false,
          "internalType": "uint256",
          "name": "value",
          "type": "uint256"
        },
        {
          "indexed": false,
          "internalType": "string",
          "name": "signature",
          "type": "string"
        },
        {
          "indexed": false,
          "internalType": "bytes",
          "name": "data",
          "type": "bytes"
        },
        {
          "indexed": false,
          "internalType": "uint256",
          "name": "eta",
          "type": "uint256"
        }
      ],
      "name": "CancelTransaction",
      "type": "event"
    },
    {
      "anonymous": false,
      "inputs": [
        {
          "indexed": true,
          "internalType": "bytes32",
          "name": "txHash",
          "type": "bytes32"
        },
        {
          "indexed": true,
          "internalType": "address",
          "name": "target",
          "type": "address"
        },
        {
          "indexed": false,
          "internalType": "uint256",
          "name": "value",
          "type": "uint256"
        },
        {
          "indexed": false,
          "internalType": "string",
          "name": "signature",
          "type": "string"
        },
        {
          "indexed": false,
          "internalType": "bytes",
          "name": "data",
          "type": "bytes"
        },
        {
          "indexed": false,
          "internalType": "uint256",
          "name": "eta",
          "type": "uint256"
        }
      ],
      "name": "ExecuteTransaction",
      "type": "event"
    },
    {
      "anonymous": false,
      "inputs": [
        {
          "indexed": true,
          "internalType": "address",
          "name": "newAdmin",
          "type": "address"
        }
      ],
      "name": "NewAdmin",
      "type": "event"
    },
    {
      "anonymous": false,
      "inputs": [
        {
          "indexed": true,
          "internalType": "uint256",
          "name": "newDelay",
          "type": "uint256"
        }
      ],
      "name": "NewDelay",
      "type": "event"
    },
    {
      "anonymous": false,
      "inputs": [
        {
          "indexed": true,
          "internalType": "address",
          "name": "newPendingAdmin",
          "type": "address"
        }
      ],
      "name": "NewPendingAdmin",
      "type": "event"
    },
    {
      "anonymous": false,
      "inputs": [
        {
          "indexed": true,
          "internalType": "bytes32",
          "name": "txHash",
          "type": "bytes32"
        },
        {
          "indexed": true,
          "internalType": "address",
          "name": "target",
          "type": "address"
        },
        {
          "indexed": false,
          "internalType": "uint256",
          "name": "value",
          "type": "uint256"
        },
        {
          "indexed": false,
          "internalType": "string",
          "name": "signature",
          "type": "string"
        },
        {
          "indexed": false,
          "internalType": "bytes",
          "name": "data",
          "type": "bytes"
        },
        {
          "indexed": false,
          "internalType": "uint256",
          "name": "eta",
          "type": "uint256"
        }
      ],
      "name": "QueueTransaction",
      "type": "event"
    },
    {
      "stateMutability": "payable",
      "type": "fallback"
    },
    {
      "inputs": [],
      "name": "GRACE_PERIOD",
      "outputs": [
        {
          "internalType": "uint256",
          "name": "",
          "type": "uint256"
        }
      ],
      "stateMutability": "view",
      "type": "function"
    },
    {
      "inputs": [],
      "name": "MAXIMUM_DELAY",
      "outputs": [
        {
          "internalType": "uint256",
          "name": "",
          "type": "uint256"
        }
      ],
      "stateMutability": "view",
      "type": "function"
    },
    {
      "inputs": [],
      "name": "MINIMUM_DELAY",
      "outputs": [
        {
          "internalType": "uint256",
          "name": "",
          "type": "uint256"
        }
      ],
      "stateMutability": "view",
      "type": "function"
    },
    {
      "inputs": [],
      "name": "acceptAdmin",
      "outputs": [],
      "stateMutability": "nonpayable",
      "type": "function"
    },
    {
      "inputs": [],
      "name": "admin",
      "outputs": [
        {
          "internalType": "address",
          "name": "",
          "type": "address"
        }
      ],
      "stateMutability": "view",
      "type": "function"
    },
    {
      "inputs": [
        {
          "internalType": "address",
          "name": "target",
          "type": "address"
        },
        {
          "internalType": "uint256",
          "name": "value",
          "type": "uint256"
        },
        {
          "internalType": "string",
          "name": "signature",
          "type": "string"
        },
        {
          "internalType": "bytes",
          "name": "data",
          "type": "bytes"
        },
        {
          "internalType": "uint256",
          "name": "eta",
          "type": "uint256"
        }
      ],
      "name": "cancelTransaction",
      "outputs": [],
      "stateMutability": "nonpayable",
      "type": "function"
    },
    {
      "inputs": [],
      "name": "delay",
      "outputs": [
        {
          "internalType": "uint256",
          "name": "",
          "type": "uint256"
        }
      ],
      "stateMutability": "view",
      "type": "function"
    },
    {
      "inputs": [
        {
          "internalType": "address",
          "name": "target",
          "type": "address"
        },
        {
          "internalType": "uint256",
          "name": "value",
          "type": "uint256"
        },
        {
          "internalType": "string",
          "name": "signature",
          "type": "string"
        },
        {
          "internalType": "bytes",
          "name": "data",
          "type": "bytes"
        },
        {
          "internalType": "uint256",
          "name": "eta",
          "type": "uint256"
        }
      ],
      "name": "executeTransaction",
      "outputs": [
        {
          "internalType": "bytes",
          "name": "",
          "type": "bytes"
        }
      ],
      "stateMutability": "payable",
      "type": "function"
    },
    {
      "inputs": [
        {
          "internalType": "address",
          "name": "admin_",
          "type": "address"
        }
      ],
      "name": "harnessSetAdmin",
      "outputs": [],
      "stateMutability": "nonpayable",
      "type": "function"
    },
    {
      "inputs": [
        {
          "internalType": "address",
          "name": "pendingAdmin_",
          "type": "address"
        }
      ],
      "name": "harnessSetPendingAdmin",
      "outputs": [],
      "stateMutability": "nonpayable",
      "type": "function"
    },
    {
      "inputs": [],
      "name": "pendingAdmin",
      "outputs": [
        {
          "internalType": "address",
          "name": "",
          "type": "address"
        }
      ],
      "stateMutability": "view",
      "type": "function"
    },
    {
      "inputs": [
        {
          "internalType": "address",
          "name": "target",
          "type": "address"
        },
        {
          "internalType": "uint256",
          "name": "value",
          "type": "uint256"
        },
        {
          "internalType": "string",
          "name": "signature",
          "type": "string"
        },
        {
          "internalType": "bytes",
          "name": "data",
          "type": "bytes"
        },
        {
          "internalType": "uint256",
          "name": "eta",
          "type": "uint256"
        }
      ],
      "name": "queueTransaction",
      "outputs": [
        {
          "internalType": "bytes32",
          "name": "",
          "type": "bytes32"
        }
      ],
      "stateMutability": "nonpayable",
      "type": "function"
    },
    {
      "inputs": [
        {
          "internalType": "bytes32",
          "name": "",
          "type": "bytes32"
        }
      ],
      "name": "queuedTransactions",
      "outputs": [
        {
          "internalType": "bool",
          "name": "",
          "type": "bool"
        }
      ],
      "stateMutability": "view",
      "type": "function"
    },
    {
      "inputs": [
        {
          "internalType": "uint256",
          "name": "delay_",
          "type": "uint256"
        }
      ],
      "name": "setDelay",
      "outputs": [],
      "stateMutability": "nonpayable",
      "type": "function"
    },
    {
      "inputs": [
        {
          "internalType": "address",
          "name": "pendingAdmin_",
          "type": "address"
        }
      ],
      "name": "setPendingAdmin",
      "outputs": [],
      "stateMutability": "nonpayable",
      "type": "function"
    }
  ],
  "bytecode": "0x608060405234801561001057600080fd5b5060405161118638038061118683398101604081905261002f91610154565b81816202a3008110156100af5760405162461bcd60e51b815260206004820152603760248201527f54696d656c6f636b3a3a636f6e7374727563746f723a2044656c6179206d757360448201527f7420657863656564206d696e696d756d2064656c61792e00000000000000000060648201526084015b60405180910390fd5b62278d008111156101285760405162461bcd60e51b815260206004820152603860248201527f54696d656c6f636b3a3a73657444656c61793a2044656c6179206d757374206e60448201527f6f7420657863656564206d6178696d756d2064656c61792e000000000000000060648201526084016100a6565b600080546001600160a01b0319166001600160a01b0393909316929092179091556002555061018e9050565b6000806040838503121561016757600080fd5b82516001600160a01b038116811461017e57600080fd5b6020939093015192949293505050565b610fe98061019d6000396000f3fe6080604052600436106100df5760003560e01c806372b812b411610084578063c1a287e211610056578063c1a287e214610283578063e177246e1461029a578063f2b06537146102ba578063f851a440146102fa57005b806372b812b4146101db5780637d645fab146102185780639ddf774f1461022f578063b1b43ae51461026c57005b80633a66f901116100bd5780633a66f901146101575780634dd18bf514610185578063591fcdfe146101a55780636a42b8f8146101c557005b80630825f38f146100e15780630e18b6811461010a578063267822471461011f575b005b6100f46100ef366004610d69565b61031a565b6040516101019190610e76565b60405180910390f35b34801561011657600080fd5b506100df61068b565b34801561012b57600080fd5b5060015461013f906001600160a01b031681565b6040516001600160a01b039091168152602001610101565b34801561016357600080fd5b50610177610172366004610d69565b610754565b604051908152602001610101565b34801561019157600080fd5b506100df6101a0366004610e89565b610907565b3480156101b157600080fd5b506100df6101c0366004610d69565b6109c6565b3480156101d157600080fd5b5061017760025481565b3480156101e757600080fd5b506100df6101f6366004610e89565b600080546001600160a01b0319166001600160a01b0392909216919091179055565b34801561022457600080fd5b5061017762278d0081565b34801561023b57600080fd5b506100df61024a366004610e89565b600180546001600160a01b0319166001600160a01b0392909216919091179055565b34801561027857600080fd5b506101776202a30081565b34801561028f57600080fd5b506101776212750081565b3480156102a657600080fd5b506100df6102b5366004610ea4565b610ae0565b3480156102c657600080fd5b506102ea6102d5366004610ea4565b60036020526000908152604090205460ff1681565b6040519015158152602001610101565b34801561030657600080fd5b5060005461013f906001600160a01b031681565b6000546060906001600160a01b031633146103a25760405162461bcd60e51b815260206004820152603860248201527f54696d656c6f636b3a3a657865637574655472616e73616374696f6e3a20436160448201527f6c6c206d75737420636f6d652066726f6d2061646d696e2e000000000000000060648201526084015b60405180910390fd5b600086868686866040516020016103bd959493929190610ebd565b60408051601f1981840301815291815281516020928301206000818152600390935291205490915060ff166104485760405162461bcd60e51b815260206004820152603d6024820152600080516020610f9483398151915260448201527f616e73616374696f6e206861736e2774206265656e207175657565642e0000006064820152608401610399565b824210156104ba5760405162461bcd60e51b81526020600482015260456024820152600080516020610f9483398151915260448201527f616e73616374696f6e206861736e2774207375727061737365642074696d65206064820152643637b1b59760d91b608482015260a401610399565b6104c78362127500610c65565b4211156105205760405162461bcd60e51b81526020600482015260336024820152600080516020610f9483398151915260448201527230b739b0b1ba34b7b71034b99039ba30b6329760691b6064820152608401610399565b6000818152600360205260409020805460ff191690558451606090610546575083610572565b858051906020012085604051602001610560929190610f09565b60405160208183030381529060405290505b600080896001600160a01b0316898460405161058e9190610f3a565b60006040518083038185875af1925050503d80600081146105cb576040519150601f19603f3d011682016040523d82523d6000602084013e6105d0565b606091505b5091509150816106365760405162461bcd60e51b815260206004820152603d6024820152600080516020610f9483398151915260448201527f616e73616374696f6e20657865637574696f6e2072657665727465642e0000006064820152608401610399565b896001600160a01b0316847fa560e3198060a2f10670c1ec5b403077ea6ae93ca8de1c32b451dc1a943cd6e78b8b8b8b6040516106769493929190610f56565b60405180910390a39998505050505050505050565b6001546001600160a01b0316331461070b5760405162461bcd60e51b815260206004820152603860248201527f54696d656c6f636b3a3a61636365707441646d696e3a2043616c6c206d75737460448201527f20636f6d652066726f6d2070656e64696e6741646d696e2e00000000000000006064820152608401610399565b60008054336001600160a01b0319918216811783556001805490921690915560405190917f71614071b88dee5e0b2ae578a9dd7b2ebbe9ae832ba419dc0242cd065a290b6c91a2565b600080546001600160a01b031633146107ce5760405162461bcd60e51b815260206004820152603660248201527f54696d656c6f636b3a3a71756575655472616e73616374696f6e3a2043616c6c6044820152751036bab9ba1031b7b6b290333937b69030b236b4b71760511b6064820152608401610399565b6107e16002546107db4290565b90610c65565b8210156108685760405162461bcd60e51b815260206004820152604960248201527f54696d656c6f636b3a3a71756575655472616e73616374696f6e3a204573746960448201527f6d6174656420657865637574696f6e20626c6f636b206d757374207361746973606482015268333c903232b630bc9760b91b608482015260a401610399565b60008686868686604051602001610883959493929190610ebd565b60408051601f19818403018152828252805160209182012060008181526003909252919020805460ff1916600117905591506001600160a01b0388169082907f76e2796dc3a81d57b0e8504b647febcbeeb5f4af818e164f11eef8131a6a763f906108f5908a908a908a908a90610f56565b60405180910390a39695505050505050565b33301461097c5760405162461bcd60e51b815260206004820152603860248201527f54696d656c6f636b3a3a73657450656e64696e6741646d696e3a2043616c6c2060448201527f6d75737420636f6d652066726f6d2054696d656c6f636b2e00000000000000006064820152608401610399565b600180546001600160a01b0319166001600160a01b0383169081179091556040517f69d78e38a01985fbb1462961809b4b2d65531bc93b2b94037f3334b82ca4a75690600090a250565b6000546001600160a01b03163314610a465760405162461bcd60e51b815260206004820152603760248201527f54696d656c6f636b3a3a63616e63656c5472616e73616374696f6e3a2043616c60448201527f6c206d75737420636f6d652066726f6d2061646d696e2e0000000000000000006064820152608401610399565b60008585858585604051602001610a61959493929190610ebd565b60408051601f19818403018152828252805160209182012060008181526003909252919020805460ff1916905591506001600160a01b0387169082907f2fffc091a501fd91bfbff27141450d3acb40fb8e6d8382b243ec7a812a3aaf8790610ad0908990899089908990610f56565b60405180910390a3505050505050565b333014610b495760405162461bcd60e51b815260206004820152603160248201527f54696d656c6f636b3a3a73657444656c61793a2043616c6c206d75737420636f60448201527036b290333937b6902a34b6b2b637b1b59760791b6064820152608401610399565b6202a300811015610bb95760405162461bcd60e51b815260206004820152603460248201527f54696d656c6f636b3a3a73657444656c61793a2044656c6179206d75737420656044820152733c31b2b2b21036b4b734b6bab6903232b630bc9760611b6064820152608401610399565b62278d00811115610c325760405162461bcd60e51b815260206004820152603860248201527f54696d656c6f636b3a3a73657444656c61793a2044656c6179206d757374206e60448201527f6f7420657863656564206d6178696d756d2064656c61792e00000000000000006064820152608401610399565b600281905560405181907f948b1f6a42ee138b7e34058ba85a37f716d55ff25ff05a763f15bed6a04c8d2c90600090a250565b600082820183811015610cba5760405162461bcd60e51b815260206004820152601b60248201527f536166654d6174683a206164646974696f6e206f766572666c6f7700000000006044820152606401610399565b9392505050565b80356001600160a01b0381168114610cd857600080fd5b919050565b634e487b7160e01b600052604160045260246000fd5b600067ffffffffffffffff80841115610d0e57610d0e610cdd565b604051601f8501601f19908116603f01168101908282118183101715610d3657610d36610cdd565b81604052809350858152868686011115610d4f57600080fd5b858560208301376000602087830101525050509392505050565b600080600080600060a08688031215610d8157600080fd5b610d8a86610cc1565b945060208601359350604086013567ffffffffffffffff80821115610dae57600080fd5b818801915088601f830112610dc257600080fd5b610dd189833560208501610cf3565b94506060880135915080821115610de757600080fd5b508601601f81018813610df957600080fd5b610e0888823560208401610cf3565b95989497509295608001359392505050565b60005b83811015610e35578181015183820152602001610e1d565b83811115610e44576000848401525b50505050565b60008151808452610e62816020860160208601610e1a565b601f01601f19169290920160200192915050565b602081526000610cba6020830184610e4a565b600060208284031215610e9b57600080fd5b610cba82610cc1565b600060208284031215610eb657600080fd5b5035919050565b60018060a01b038616815284602082015260a060408201526000610ee460a0830186610e4a565b8281036060840152610ef68186610e4a565b9150508260808301529695505050505050565b6001600160e01b0319831681528151600090610f2c816004850160208701610e1a565b919091016004019392505050565b60008251610f4c818460208701610e1a565b9190910192915050565b848152608060208201526000610f6f6080830186610e4a565b8281036040840152610f818186610e4a565b9150508260608301529594505050505056fe54696d656c6f636b3a3a657865637574655472616e73616374696f6e3a205472a2646970667358221220f2d84d9a01c960a6379ea91ae3ee9762cbbbc7ec30561183193db6729164521764736f6c634300080a0033",
  "linkReferences": {},
  "deployedLinkReferences": {}
}